:100000000C945F000C9487000C9487000C9487007C
:100010000C9487000C9487000C9487000C94870044
:100020000C9487000C9487000C9487000C94870034
:100030000C9487000C9487000C9487000C94870024
:100040000C947B030C9487000C9445060C94770663
:100050000C9487000C9487000C9487000C94870004
:100060000C9487000C948700000000080002010037
:100070000003040700000000000000000102040863
:100080001020408001020408102001020408102002
:10009000040404040404040402020202020203032E
:1000A0000303030300000000250028002B000000CC
:1000B0000000240027002A008D02A7069F021124B9
:1000C0001FBECFEFD8E0DEBFCDBF11E0A0E0B1E0B2
:1000D000ECEDFBE102C005900D92A839B107D9F70C
:1000E00022E0A8E9B1E001C01D92AE35B207E1F708
:1000F00010E0CCEBD0E004C02297FE010E94460B3A
:10010000C83BD107C9F70E94EB060C94E10D0C9493
:10011000000026E040E051EE60E070E08DEB91E001
:100120000E94E3058FEA91E00E94AB0288E991E02A
:100130000E94B70060E08FEA91E00E94D40266E07E
:1001400071E08DEB91E00C9445078DEB91E00E94FE
:1001500000051816190654F48DEB91E00E9419055C
:10016000BC0188E991E00E94D700EFCF0895CF93BA
:10017000DF93EC0168E871E00E948C0868E871E0A8
:10018000CE0106960E948C0868E871E0CE010C96BC
:100190000E948C0881E08A8B41E050E060E070E0D2
:1001A0004B8B5C8B6D8B7E8BDF91CF9108958F9203
:1001B0009F92AF92BF92CF92DF92EF92FF920F93F6
:1001C0001F93CF93DF9300D000D000D0CDB7DEB720
:1001D0008C017B01CB01C0970A97D8F4F801828982
:1001E000882329F0C80106960E94D00817C0C801CC
:1001F0000C960E94D008F8012389348945895689D4
:10020000AAE0B0E00E94390B638B748B858B968BD0
:1002100005C06E32710511F4F801128AC7010E94FF
:10022000730D892B21F06E2DC8010E94D008FAE0D1
:10023000EF16F10409F05EC1F8012289C8010696A3
:10024000222329F00E941C090E94280A29C00E942A
:100250001C096B017C01C8010C960E941C094B0112
:100260005C01C701B6010E94280A6B017C01C5012F
:10027000B4010E94280A4B015C01F801638974896A
:10028000858996890E94280A9B01AC01C501B401A9
:100290000E948D099B01AC01C701B6010E9429098A
:1002A0006B017C0161E171E0CE0101960E9476084C
:1002B000BE016F5F7F4FC8010E94E308B82ECE01D8
:1002C00001960E940808BB2091F066E171E08DEB79
:1002D00091E00E94450760E070E08FEA91E00E94A3
:1002E00040036FE171E08DEB91E00E94450763E20E
:1002F00071E0CE0101960E947608BE016F5F7F4FCC
:10030000C8010E94E308B82ECE0101960E94080899
:10031000BB20E9F06CE271E08DEB91E00E943807C0
:10032000C701B6010E94F5094B015C014AE050E0AB
:100330008DEB91E00E94F007B4018FEA91E00E94FA
:1003400040036FE171E08DEB91E00E94450768E3A7
:1003500071E0CE0101960E947608BE016F5F7F4F6B
:10036000C8010E94E308B82ECE0101960E94080839
:10037000BB2089F061E371E08DEB91E00E944507BD
:1003800061E08FEA91E00E94C7026FE171E08DEBBE
:1003900091E00E94450762E471E0CE0101960E945F
:1003A0007608BE016F5F7F4FC8010E94E308B82E38
:1003B000CE0101960E940808BB2089F06BE371E032
:1003C0008DEB91E00E94450760E08FEA91E00E948A
:1003D000C7026FE171E08DEB91E00E94450766E492
:1003E00071E0CE0101960E947608BE016F5F7F4FDB
:1003F000C8010E94E308B82ECE0101960E940808A9
:10040000BB2069F16DE471E08DEB91E00E9438074B
:10041000C701B6010E94F5096B017C014AE050E07A
:100420008DEB91E00E94F00761E571E08DEB91E0CA
:100430000E9438076091B2017091B3014AE050E028
:100440008DEB91E00E94F007B6018FEA91E00E94E7
:1004500062036FE171E08DEB91E00E9445076BE56F
:1004600071E0CE0101960E947608BE016F5F7F4F5A
:10047000C8010E94E308F82ECE0101960E940808E8
:10048000FF2089F06FE571E08DEB91E00E94450758
:1004900061E08FEA91E00E94D4026FE171E08DEBA0
:1004A00091E00E94450768E671E0CE0101960E9446
:1004B0007608BE016F5F7F4FC8010E94E308F82EE7
:1004C000CE0101960E940808FF2089F06CE671E0D9
:1004D0008DEB91E00E94450760E08FEA91E00E9479
:1004E000D4026FE171E08DEB91E00E944507C801F5
:1004F0000E94B70026960FB6F894DEBF0FBECDBFA0
:10050000DF91CF911F910F91FF90EF90DF90CF90EF
:10051000BF90AF909F908F90089568E871E088E950
:1005200091E00E94760868E871E08EE991E00E940F
:10053000760868E871E084EA91E00C94760884EA31
:1005400091E00E9408088EE991E00E94080888E97D
:1005500091E00C9408081F93CF93DF93EC0112E015
:1005600061E0812F0E94910460E0812F0E94CA0403
:100570001F5F1830A9F7198218821C821B821A8209
:1005800061E088E0DF91CF911F910C94CA041F9322
:10059000CF93DF93EC01162F85E00E94CA041A83E3
:1005A000DF91CF911F91089581E0682788E00C9436
:1005B000CA0461E082E00E94CA0488EC90E00E94D4
:1005C000220460E082E00E94CA0464E070E080E0FF
:1005D00090E00C94E803CF92DF92EF92FF920F939A
:1005E0001F93CF93DF93EC018B01882777FD8095D4
:1005F000982F0E94280A20E030E048E455E40E9449
:10060000B40A20E030E044EB53E40E948D090E94DC
:10061000F5097B018A81882319F18FE7C82E8CE0C8
:10062000D82E888199818E159F05F9F0CE010E9400
:10063000D9028881998101979983888397FFF1CFA7
:10064000D982C882EECFCE010E94D90288819981D9
:1006500001969983888380389C4014F0198218820F
:10066000888199818E159F0571F71C830B83DF911B
:10067000CF911F910F91FF90EF90DF90CF90089551
:10068000683621E0720710F40C94EB020895FC0127
:10069000228163817481222349F06115710519F467
:1006A00067E671E009C0615071090AC06736F1E080
:1006B0007F0721F460E070E00C94EB026F5F7F4FE6
:1006C0000C944003EF92FF920F931F93CF93DF930D
:1006D0008C017B01C0E0D0E0CE15DF052CF4C80111
:1006E0000E9447032196F8CFDF91CF911F910F9180
:1006F000FF90EF9008951F920F920FB60F92112462
:100700002F933F938F939F93AF93BF938091B501A6
:100710009091B601A091B701B091B8013091B401A8
:1007200023E0230F2D3720F40196A11DB11D05C034
:1007300026E8230F0296A11DB11D2093B4018093DA
:10074000B5019093B601A093B701B093B801809121
:10075000B9019091BA01A091BB01B091BC01019681
:10076000A11DB11D8093B9019093BA01A093BB0163
:10077000B093BC01BF91AF919F918F913F912F9109
:100780000F900FBE0F901F9018953FB7F89480916F
:10079000B9019091BA01A091BB01B091BC0126B5FD
:1007A000A89B05C02F3F19F00196A11DB11D3FBFA9
:1007B0006627782F892F9A2F620F711D811D911D39
:1007C00042E0660F771F881F991F4A95D1F7089559
:1007D0008F929F92AF92BF92CF92DF92EF92FF9251
:1007E0006B017C010E94C5034B015C01C114D10463
:1007F000E104F104F1F00E9427090E94C503681981
:1008000079098A099B09683E73408105910570F357
:1008100021E0C21AD108E108F10888EE880E83E0D1
:10082000981EA11CB11CC114D104E104F10429F7E4
:10083000DDCFFF90EF90DF90CF90BF90AF909F9073
:100840008F9008958230910538F0880F991F880F96
:10085000991F05970197F1F70895789484B5826000
:1008600084BD84B5816084BD85B5826085BD85B554
:10087000816085BDEEE6F0E0808181608083E1E803
:10088000F0E010828081826080838081816080833B
:10089000E0E8F0E0808181608083E1EBF0E080813E
:1008A00084608083E0EBF0E0808181608083EAE710
:1008B000F0E0808184608083808182608083808199
:1008C000816080838081806880831092C100089558
:1008D000833081F028F4813099F08230A1F00895BE
:1008E0008730A9F08830B9F08430D1F4809180004D
:1008F0008F7D03C0809180008F7780938000089562
:1009000084B58F7702C084B58F7D84BD08958091B2
:10091000B0008F7703C08091B0008F7D8093B000CE
:100920000895CF93DF9390E0FC01E458FF4F2491AA
:10093000FC01E057FF4F8491882349F190E0880F34
:10094000991FFC01E255FF4FA591B4918C559F4F23
:10095000FC01C591D4919FB7611108C0F8948C91A6
:10096000209582238C93888182230AC0623051F4BF
:10097000F8948C91322F309583238C938881822B2D
:10098000888304C0F8948C91822B8C939FBFDF9155
:10099000CF9108950F931F93CF93DF931F92CDB7FD
:1009A000DEB7282F30E0F901E859FF4F8491F901B3
:1009B000E458FF4F1491F901E057FF4F04910023D1
:1009C000C9F0882321F069830E9468046981E02FBF
:1009D000F0E0EE0FFF1FEC55FF4FA591B4919FB7CC
:1009E000F8948C91611103C01095812301C0812B73
:1009F0008C939FBF0F90DF91CF911F910F9108951E
:100A0000FC01818D228D90E0805C9F4F821B9109BB
:100A10008F7399270895FC01918D828D981731F07D
:100A2000828DE80FF11D858D90E008958FEF9FEF87
:100A30000895FC01918D828D981761F0828DDF0100
:100A4000A80FB11D5D968C91928D9F5F9F73928FC1
:100A500090E008958FEF9FEF08958DE996E0892B40
:100A600049F080E090E0892B29F00E949D068111D9
:100A70000C9400000895FC01848DDF01A80FB11DC6
:100A8000A35ABF4F2C91848D90E001968F739927C4
:100A9000848FA689B7892C93A089B1898C918064B1
:100AA0008C93938D848D981306C00288F389E02D72
:100AB00080818F7D80830895CF93DF93EC01888DB3
:100AC0008823C9F0EA89FB89808185FD05C0A88952
:100AD000B9898C9186FD0FC00FB607FCF5CF8081D8
:100AE00085FFF2CFA889B9898C9185FFEDCFCE0122
:100AF0000E943B05E7CFDF91CF910895CF92DF921F
:100B0000FF920F931F93CF93DF931F92CDB7DEB762
:100B10006C0181E0D60158968C9358975B969C9116
:100B20005B975C968C915C97981307C05096ED91FB
:100B3000FC915197808185FD2EC0F601038D10E058
:100B40000F5F1F4F0F731127F02EF601848DF812DF
:100B500011C00FB607FCF9CFD6015096ED91FC916C
:100B60005197808185FFF1CFC60169830E943B05C3
:100B70006981EBCF838DE80FF11DE35AFF4F60834E
:100B8000D6015B960C935B975296ED91FC9153972F
:100B9000808180620CC0D6015696ED91FC915797EA
:100BA00060835096ED91FC915197808180648083A1
:100BB00081E090E00F90DF91CF911F910F91FF9016
:100BC000DF90CF900895BF92CF92DF92EF92FF9285
:100BD000CF93DF93EC016A017B01B22EE889F9899A
:100BE00082E08083411581EE580761057105A1F00F
:100BF00060E079E08DE390E0A70196010E94170B79
:100C00002150310941095109569547953795279546
:100C1000211580E1380798F0E889F989108260E8A9
:100C200074E88EE190E0A70196010E94170B215015
:100C30003109410951095695479537952795EC8516
:100C4000FD853083EE85FF852083188EEC89FD8934
:100C5000B082EA89FB89808180618083EA89FB898F
:100C6000808188608083EA89FB89808180688083B5
:100C7000EA89FB8980818F7D8083DF91CF91FF900E
:100C8000EF90DF90CF90BF9008951F920F920FB614
:100C90000F9211242F938F939F93EF93FF93E091E3
:100CA000CD01F091CE018081E091D301F091D4018A
:100CB00082FD12C090818091D6018F5F8F73209149
:100CC000D701821751F0E091D601F0E0E354FE4FD6
:100CD000958F8093D60101C08081FF91EF919F9104
:100CE0008F912F910F900FBE0F901F9018951F920C
:100CF0000F920FB60F9211242F933F934F935F9350
:100D00006F937F938F939F93AF93BF93EF93FF93D3
:100D10008DEB91E00E943B05FF91EF91BF91AF9168
:100D20009F918F917F916F915F914F913F912F9103
:100D30000F900FBE0F901F9018958DEB91E00E94C1
:100D4000000521E0892B09F420E0822F08951092FC
:100D5000C0011092BF0188EE93E0A0E0B0E0809364
:100D6000C1019093C201A093C301B093C4018AE76B
:100D700091E09093BE018093BD0185EC90E090934B
:100D8000CA018093C90184EC90E09093CC018093D8
:100D9000CB0180EC90E09093CE018093CD0181EC6B
:100DA00090E09093D0018093CF0182EC90E09093FB
:100DB000D2018093D10186EC90E09093D40180938E
:100DC000D3011092D6011092D7011092D80110923F
:100DD000D901089508950E942D040E94EA060E94F8
:100DE0008900CDE2D5E00E94A5002097E1F30E94A2
:100DF0002D05F9CFCF92DF92EF92FF920F931F93C1
:100E0000CF93DF937C016A01EB0100E010E00C1549
:100E10001D0571F06991D701ED91FC910190F08170
:100E2000E02DC7010995892B19F00F5F1F4FEFCFF8
:100E3000C801DF91CF911F910F91FF90EF90DF904C
:100E4000CF9008956115710581F0DB010D900020B0
:100E5000E9F7AD0141505109461B570BDC01ED91FB
:100E6000FC910280F381E02D099480E090E00895E8
:100E70000C942207DC01ED91FC910190F081E02DB2
:100E8000099466E871E00C9422070F931F93CF93A7
:100E9000DF93EC010E9422078C01CE010E944107E2
:100EA000800F911FDF91CF911F910F9108958F9225
:100EB0009F92AF92BF92DF92EF92FF920F931F9398
:100EC000CF93DF93CDB7DEB7A1970FB6F894DEBF0F
:100ED0000FBECDBF7C01F42FD52ECB0119A222303D
:100EE00008F42AE08E010F5D1F4F822E912CA12C59
:100EF000B12C6F2F7D2DA50194010E94170BF22FAD
:100F0000D32ECA01015011096A3014F4E0E301C084
:100F1000E7E3E60FD801EC93232B242B252B49F78D
:100F2000B801C7010E942207A1960FB6F894DEBF50
:100F30000FBECDBFDF91CF911F910F91FF90EF902A
:100F4000DF90BF90AF909F908F900895CF92DF92E7
:100F5000EF92FF920F931F93CF93DF93EC016A01FF
:100F60007B012115310579F4E881F9810190F08147
:100F7000E02D642FDF91CF911F910F91FF90EF90A3
:100F8000DF90CF9009942A303105E9F477FF1AC039
:100F90006DE20E943A078C0144275527BA014C198B
:100FA0005D096E097F092AE0CE010E945707800F74
:100FB000911FDF91CF911F910F91FF90EF90DF90E4
:100FC000CF9008952AE0B701A601CE01DF91CF911D
:100FD0001F910F91FF90EF90DF90CF900C945707E7
:100FE0000F931F93CF93DF93EC019A01AB01662718
:100FF00057FD6095762F0E94A6078C01CE010E94B6
:101000004107800F911FDF91CF911F910F9108959C
:10101000FC01808191810C94F10BCF93DF93EC0163
:1010200088819981009711F00E94F10B1982188232
:101030001D821C821B821A82DF91CF9108950F932B
:101040001F93CF93DF93EC018B016F5F7F4F8881FC
:1010500099810E94800C009731F0998388831B83CB
:101060000A8381E001C080E0DF91CF911F910F9151
:101070000895CF93DF93EC0188819981892B29F022
:101080008A819B818617970760F4CE010E941F0812
:10109000882341F08C819D81892B19F4E881F981A5
:1010A000108281E0DF91CF910895EF92FF920F932C
:1010B0001F93CF93DF93EC017B018A01BA010E9459
:1010C0003908811104C0CE010E940D0807C01D839C
:1010D0000C83B701888199810E948B0DCE01DF912D
:1010E000CF911F910F91FF90EF900895FC01118215
:1010F000108213821282158214826115710559F0D3
:10110000FB0101900020E9F7AF0141505109461B56
:10111000570B0C9455080895CF93DF93EC0161159C
:10112000710561F0FB0101900020E9F7AF0141502A
:101130005109461B570B0E94550802C00E940D081A
:10114000CE01DF91CF910895EF92FF920F931F93FD
:10115000CF93DF93EC017B010C811D81611571053B
:1011600011F480E016C04115510591F0040F151FD0
:10117000B8010E9439088823A1F3288139818C8124
:101180009D81B701820F931F0E948B0D1D830C83DD
:1011900081E0DF91CF911F910F91FF90EF90089523
:1011A000CF93DF9300D0CDB7DEB769831A8241E0D9
:1011B00050E0BE016F5F7F4F0E94A4080F900F9018
:1011C000DF91CF910895EF92FF920F931F93CF93EA
:1011D000DF938617970731F1FC0124813581FB01EC
:1011E0004481558124173507F9F4232BD9F0FC01EC
:1011F00000811181FB01C081D181F80181918F01B2
:10120000882381F0992787FD90950E947A0D7C01B3
:101210008991992787FD90950E947A0DE816F90625
:1012200061F302C081E001C080E0DF91CF911F91A6
:101230000F91FF90EF900895FC01808191810097BC
:1012400011F00C944A0D60E070E0CB010895089510
:101250005058BB27AA270ED04DC13ED130F043D104
:1012600020F031F49F3F11F41EF433C10EF4E095E9
:10127000E7FB29C1E92F4FD180F3BA176207730743
:101280008407950718F071F49EF567C10EF4E09598
:101290000B2EBA2FA02D0B01B90190010C01CA0130
:1012A000A0011124FF27591B99F0593F50F4503EDB
:1012B00068F11A16F040A22F232F342F4427585FCD
:1012C000F3CF469537952795A795F0405395C9F7E5
:1012D0007EF41F16BA0B620B730B840BBAF091509D
:1012E000A1F0FF0FBB1F661F771F881FC2F70EC03C
:1012F000BA0F621F731F841F48F48795779567950F
:10130000B795F7959E3F08F0B3CF9395880F08F0F7
:101310009927EE0F9795879508950CD0EBC0E3D0F1
:1013200040F0DAD030F021F45F3F19F0CCC0511119
:1013300015C1CFC0F0D098F39923C9F35523B1F369
:10134000951B550BBB27AA2762177307840738F034
:101350009F5F5F4F220F331F441FAA1FA9F333D093
:101360000E2E3AF0E0E830D091505040E695001C47
:10137000CAF729D0FE2F27D0660F771F881FBB1F03
:10138000261737074807AB07B0E809F0BB0B802DDD
:10139000BF01FF2793585F4F2AF09E3F510568F029
:1013A00092C0DCC05F3FECF3983EDCF38695779506
:1013B0006795B795F7959F5FC9F7880F911D96952B
:1013C000879597F90895E1E0660F771F881FBB1F87
:1013D000621773078407BA0720F0621B730B840B34
:1013E000BA0BEE1F88F7E095089504D06894B11108
:1013F000B5C0089598D088F09F5790F0B92F9927DD
:10140000B751A0F0D1F0660F771F881F991F1AF00F
:10141000BA95C9F712C0B13081F09FD0B1E00895FC
:101420009CC0672F782F8827B85F39F0B93FCCF37D
:10143000869577956795B395D9F73EF49095809505
:10144000709561957F4F8F4F9F4F0895E89409C025
:1014500097FB3EF490958095709561957F4F8F4FE7
:101460009F4F9923A9F0F92F96E9BB279395F695FD
:10147000879577956795B795F111F8CFFAF4BB0F7B
:1014800011F460FF1BC06F5F7F4F8F4F9F4F16C0DF
:10149000882311F096E911C0772321F09EE8872F69
:1014A000762F05C0662371F096E8862F70E060E025
:1014B0002AF09A95660F771F881FDAF7880F96959E
:1014C000879597F9089597F99F6780E870E060E045
:1014D00008959FEF80EC089500240A9416161706CD
:1014E00018060906089500240A9412161306140615
:1014F00005060895092E0394000C11F4882352F078
:10150000BB0F40F4BF2B11F460FF04C06F5F7F4F2F
:101510008F4F9F4F089557FD9058440F551F59F016
:101520005F3F71F04795880F97FB991F61F09F3FD0
:1015300079F087950895121613061406551FF2CFF9
:101540004695F1DF08C0161617061806991FF1CF49
:1015500086957105610508940895E894BB27662770
:101560007727CB0197F908950BD0C4CFB5DF28F0CA
:10157000BADF18F0952309F0A6CFABCF1124EECF38
:10158000CADFA0F3959FD1F3950F50E0551F629FDE
:10159000F001729FBB27F00DB11D639FAA27F00DCC
:1015A000B11DAA1F649F6627B00DA11D661F829FF3
:1015B0002227B00DA11D621F739FB00DA11D621FD8
:1015C000839FA00D611D221F749F3327A00D611DF5
:1015D000231F849F600D211D822F762F6A2F1124D7
:1015E0009F5750408AF0E1F088234AF0EE0FFF1F2A
:1015F000BB1F661F771F881F91505040A9F79E3F61
:10160000510570F060CFAACF5F3FECF3983EDCF35A
:10161000869577956795B795F795E7959F5FC1F79D
:10162000FE2B880F911D9695879597F90895A1E255
:101630001A2EAA1BBB1BFD010DC0AA1FBB1FEE1F4C
:10164000FF1FA217B307E407F50720F0A21BB30B97
:10165000E40BF50B661F771F881F991F1A9469F713
:1016600060957095809590959B01AC01BD01CF016F
:1016700008950E944A0BA59F900DB49F900DA49FC2
:10168000800D911D11240895EE0FFF1F0590F49118
:10169000E02D0994A29FB001B39FC001A39F700DDC
:1016A000811D1124911DB29F700D811D1124911D6A
:1016B0000895CF93DF938230910510F482E090E09B
:1016C000E0915C02F0915D0220E030E0A0E0B0E04B
:1016D000309739F14081518148175907B8F04817C0
:1016E000590771F482819381109729F013969C9386
:1016F0008E9312972CC090935D0280935C0227C05A
:101700002115310531F04217530718F0A901DB010B
:1017100001C0EF019A01BD01DF010280F381E02DDC
:10172000D7CF21153105F9F0281B390B24303105AD
:1017300080F48A819B816115710521F0FB019383FF
:10174000828304C090935D0280935C02FE01329616
:1017500044C0FE01E20FF31F81939193225031099F
:10176000398328833AC020915A0230915B02232B9F
:1017700041F4209102013091030130935B022093E8
:101780005A0220910001309101012115310541F4E7
:101790002DB73EB74091040150910501241B350B34
:1017A000E0915A02F0915B02E217F307A0F42E1BBE
:1017B0003F0B2817390778F0AC014E5F5F4F2417B5
:1017C000350748F04E0F5F1F50935B0240935A025B
:1017D0008193919302C0E0E0F0E0CF01DF91CF91DF
:1017E0000895CF93DF93009709F487C0FC013297E7
:1017F00013821282C0915C02D0915D02209781F425
:1018000020813181280F391F80915A0290915B020B
:101810008217930779F5F0935B02E0935A026DC04B
:10182000DE0120E030E0AE17BF0750F412964D9174
:101830005C9113979D014115510509F1DA01F3CF30
:10184000B383A28340815181840F951F8A179B0720
:1018500071F48D919C911197840F951F029691833D
:10186000808312968D919C91139793838283211587
:10187000310529F4F0935D02E0935C023EC0D9018A
:101880001396FC93EE9312974D915D91A40FB51FA3
:10189000EA17FB0779F480819181840F951F0296E6
:1018A000D90111969C938E938281938113969C9378
:1018B0008E931297E0E0F0E08A819B81009719F007
:1018C000FE01EC01F9CFCE01029628813981820F09
:1018D000931F20915A0230915B022817390769F44F
:1018E000309729F410925D0210925C0202C01382BC
:1018F0001282D0935B02C0935A02DF91CF91089578
:10190000A0E0B0E0E6E8FCE00C94AE0DEC01CB0109
:10191000209719F40E94590BB8C0FE01E60FF71F7B
:101920009E0122503109E217F30708F4ACC0D90137
:101930000D911C91119706171707B8F00530110586
:1019400008F49FC0A801445051094617570708F4EE
:1019500098C002501109061B170B019311936D9348
:101960007C93CF010E94F10B8CC05B01A01AB10ADD
:101970004E01800E911EA0915C02B0915D02612C1F
:10198000712C60E070E0109709F449C0A815B90502
:10199000C9F5ED90FC901197670142E0C40ED11C8F
:1019A000CA14DB0478F147018A189B08640142E0FD
:1019B000C40ED11C1296BC9012971396AC91B5E050
:1019C000CB16D10440F0B282A38391828082D901E8
:1019D0008D939C9309C00E5F1F4F0E0D1F1DF901C3
:1019E00011830083EB2DFA2F6115710531F0DB01B6
:1019F0001396FC93EE93129744C0F0935D02E0932C
:101A00005C023FC06D917C9111976616770608F4D1
:101A10003B01BD0112960D90BC91A02DB4CF6091F9
:101A20005A0270915B0268157905E9F46816790627
:101A3000D0F440910001509101014115510541F44C
:101A40004DB75EB76091040170910501461B570BBD
:101A5000E417F507C0F4F0935B02E0935A02F90132
:101A6000918380830EC00E94590B7C01009759F02E
:101A7000A801BE010E94820DCE010E94F10BC70198
:101A800004C0CE0102C080E090E0CDB7DEB7EEE04A
:101A90000C94CA0D1F93FC0199278827BC01E89478
:101AA00011911032E9F3193010F01E30C8F31B32D7
:101AB00051F01D3249F4689406C00E94920D610FE6
:101AC000711D811D911D119110531A30B0F33EF418
:101AD00090958095709561957F4F8F4F9F4F1F9187
:101AE000089585FD34C08062911131C081568A51BC
:101AF000E0F708959111089581548A5108F4805EA9
:101B0000855A0895FB01DC0102C001900D924150FD
:101B10005040D8F70895FB01DC0101900D920020A0
:101B2000E1F70895592F482F372F262F660F771F7B
:101B3000881F991F660F771F881F991F620F731FD9
:101B4000841F951F660F771F881F991F0895992777
:101B5000882708952F923F924F925F926F927F92C3
:101B60008F929F92AF92BF92CF92DF92EF92FF92AD
:101B70000F931F93CF93DF93CDB7DEB7CA1BDB0B59
:101B80000FB6F894DEBF0FBECDBF09942A883988FE
:101B900048885F846E847D848C849B84AA84B98405
:101BA000C884DF80EE80FD800C811B81AA81B98111
:101BB000CE0FD11D0FB6F894DEBF0FBECDBFED0125
:101BC000089510E0CCEBD0E004C0FE010E94460B6B
:0C1BD0002296CE3BD107C9F7F894FFCF56
:101BDC0000005E02800040526F74617465416E6754
:101BEC00005A45524F00235A65726F506F73004074
:101BFC004F4B00524F54415445544F002352323AEC
:101C0C000053657420746F2043570053657420741F
:101C1C006F2043435700524F544154450023523ACE
:101C2C00002343757272656E743A00454E41002371
:101C3C00456E61626C6564004449530023446973CA
:101C4C0061626C656400000000007E05FA06000508
:101C5C0019050B055C050D0A006E616E00696E6658
:081C6C00006F7666002E0000F7
:00000001FF
