:100000000C94E6020C940E030C940E030C940E0355
:100010000C940E030C940E030C940E030C940E031C
:100020000C940E030C940E030C940E030C940E030C
:100030000C940E030C94E1130C940E030C940E0319
:100040000C9408140C940E030C9479170C94AB17B1
:100050000C940E030C940E030C940E030C940E03DC
:100060000C940E030C940E0300000000003E5B4F46
:100070005B3E3E6B4F6B3E1C3E7C3E1C183C7E3C08
:10008000181C577D571C1C5E7F5E1C00183C180016
:10009000FFE7C3E7FF0018241800FFE7DBE7FF30A6
:1000A000483A060E2629792926407F050507407F14
:1000B00005253F5A3CE73C5A7F3E1C1C08081C1C87
:1000C0003E7F14227F22145F5F005F5F06097F017D
:1000D0007F006689956A606060606094A2FFA29468
:1000E00008047E040810207E201008082A1C080836
:1000F0001C2A08081E101010100C1E0C1E0C303884
:100100003E3830060E3E0E06000000000000005F84
:1001100000000007000700147F147F14242A7F2AA0
:100120001223130864623649562050000807030062
:10013000001C2241000041221C002A1C7F1C2A08AE
:10014000083E080800807030000808080808000011
:1001500060600020100804023E5149453E00427F85
:10016000400072494949462141494D331814127FD4
:100170001027454545393C4A494931412111090774
:100180003649494936464949291E000014000000F5
:1001900040340000000814224114141414140041C7
:1001A00022140802015909063E415D594E7C121184
:1001B000127C7F494949363E414141227F414141BC
:1001C0003E7F494949417F090909013E4141517337
:1001D0007F0808087F00417F41002040413F017FA8
:1001E000081422417F404040407F021C027F7F0470
:1001F00008107F3E4141413E7F090909063E4151B9
:10020000215E7F09192946264949493203017F01A8
:10021000033F4040403F1F2040201F3F4038403FA9
:10022000631408146303047804036159494D4300BF
:100230007F4141410204081020004141417F0402F6
:10024000010204404040404000030708002054548D
:1002500078407F284444383844444428384444286B
:100260007F385454541800087E090218A4A49C78BE
:100270007F0804047800447D40002040403D007F1A
:100280001028440000417F40007C047804787C08FA
:100290000404783844444438FC18242418182424CE
:1002A00018FC7C08040408485454542404043F44B3
:1002B000243C4040207C1C2040201C3C4030403CE2
:1002C00044281028444C9090907C4464544C440042
:1002D00008364100000077000000413608000201A6
:1002E0000204023C2623263C1EA1A161123A404092
:1002F000207A38545455592155557941225454780F
:1003000042215554784020545579400C1E527212A7
:100310003955555559395454545939555454580030
:1003200000457C410002457D420001457C407D1234
:1003300011127DF0282528F07C5455450020545496
:100340007C547C0A097F4932494949323A44444441
:100350003A324A4848303A4141217A3A424020787C
:10036000009DA0A07D3D4242423D3D4040403D3C7D
:1003700024FF2424487E4943662B2FFC2F2BFF09A2
:1003800029F620C0887E0903205454794100004496
:100390007D413048484A32384040227A007A0A0A81
:1003A000727D0D19317D2629292F282629292926F4
:1003B00030484D4020380808080808080808382F39
:1003C00010C8ACBA2F102834FA00007B00000814C3
:1003D0002A142222142A14085500550055AA55AA99
:1003E00055AAFF55FF55FF000000FF00101010FF39
:1003F00000141414FF001010FF00FF1010F010F094
:10040000141414FC001414F700FF0000FF00FF1484
:1004100014F404FC141417101F10101F101F1414D0
:10042000141F00101010F0000000001F101010101A
:100430001F10101010F010000000FF10101010100E
:1004400010101010FF10000000FF140000FF00FF4C
:1004500000001F10170000FC04F4141417101714E8
:1004600014F404F40000FF00F7141414141414140A
:10047000F700F7141414171410101F101F1414147D
:10048000F4141010F010F000001F101F0000001FE7
:1004900014000000FC140000F010F01010FF10FF1A
:1004A000141414FF141010101F00000000F010FFAF
:1004B000FFFFFFFFF0F0F0F0F0FFFFFF0000000093
:1004C00000FFFF0F0F0F0F0F3844443844FC4A4A17
:1004D0004A347E02020606027E027E0263554941CC
:1004E000633844443C04407E201E2006027E020203
:1004F00099A5E7A5991C2A492A1C4C7201724C3017
:100500004A4D4D303048784830BC625A463D3E49ED
:100510004949007E0101017E2A2A2A2A2A44445F91
:10052000444440514A444040444A51400000FF0185
:1005300003E080FF000008086B6B08361236243693
:10054000060F090F060000181800000010100030F8
:1005500040FF0101001F01011E00191D1712003C80
:100560003C3C3C00000000000000000800020100CC
:10057000000304070000000000000000010204085E
:1005800010204080010204081020010204081020FD
:100590000404040404040404020202020202030329
:1005A00003030303000000002300260029000000CD
:1005B0000000250028002B00000000002400270078
:1005C0002A006E07590BBD0BDB176B0B11241FBEE6
:1005D000CFEFD8E0DEBFCDBF14E0A0E0B1E0E8E0AF
:1005E000F1E402C005900D92A036B107D9F725E0DD
:1005F000A0E6B4E001C01D92A93AB207E1F715E008
:10060000CAECD5E004C02297FE010E94C11DC23C85
:10061000D107C9F70E941F180C9477200C94000092
:1006200082E694E00C94710526E040E051EE60E033
:1006300070E088E095E00E94171763E173E088E0BE
:1006400095E00E9479180E94CF0644E068E28DE8A8
:1006500094E00E940A130E94050785ED94E00E9431
:10066000770B80EB94E00E947D0782E694E00E9485
:10067000900685EF94E00E94BB0C8EEB94E00E9404
:100680000E0AE1E8F0E080E180831092800082E0D1
:100690008093FC0480E593EC9093FE048093FD042A
:1006A000909387008093860082E1808380E193E0CD
:1006B0009093FB048093FA0481E080936F00089587
:1006C00088E095E00E9434161816190654F488E064
:1006D00095E00E944D16BC018EEB94E00E942E0A1C
:1006E000EFCF80EB94E00E949D070E945307BC016E
:1006F00080EB94E00E942A0962E070E080E090E0E4
:100700000C947514CF92DF92EF92FF920F931F9388
:10071000CF93DF93F82E0AE010E0C0E0D0E08F2DF9
:100720000E94F514C80FD91F01501109C1F760913B
:10073000EF047091F0048091F1049091F204681B31
:10074000790B882777FD8095982F0E944F1C20E019
:1007500030E040E85EE30E94031D6B017C01CE01A6
:100760006AE070E00E946A1DCB010E94E00620E072
:1007700030E040E05FE30E944B1B9B01AC01C701EE
:10078000B6010E94031D6B017C016091F104709120
:10079000F204882777FD8095982F0E944F1C9B01BB
:1007A000AC01C701B6010E944C1BDF91CF911F9194
:1007B0000F91FF90EF90DF90CF900895FC01448F50
:1007C000558F668F778F21E022A70895CF92DF9211
:1007D000EF92FF92CF93DF93EC016A017B0120E05F
:1007E00030E0A901C701B6010E94B01B181684F0C1
:1007F00060E070E083E00E941215188E198E1A8E48
:100800001B8EDF91CF91FF90EF90DF90CF900895F6
:1008100020E030E044E353E4C701B6010E94FF1C2E
:10082000181634F4C12CD12C84E3E82E83E4F82E7E
:10083000C88ED98EEA8EFB8E20E030E046E952E485
:10084000C701B6010E944C1B0E941C1C83E0DF9173
:10085000CF91FF90EF90DF90CF900C941215FC0198
:10086000608D718D828D938D0895CF92DF92EF927E
:10087000FF92CF93DF93EC01CB01BA01288D398D24
:100880004A8D5B8D0E944C1B6B017C0120E030E0A7
:1008900044E353E40E94FF1C181634F4C12CD12CFD
:1008A00094E3E92E93E4F92EB701A601CE01DF917E
:1008B000CF91FF90EF90DF90CF900C94E6038F9252
:1008C0009F92AF92BF92CF92DF92EF92FF92CF931F
:1008D000DF93EC014A015B01C88CD98CEA8CFB8C5C
:1008E0009A01AB01C701B6010E94FF1C87FD15C02C
:1008F000A5019401C701B6010E944B1BAB01BC01CD
:10090000CE01DF91CF91FF90EF90DF90CF90BF901D
:10091000AF909F908F900C94E60360E070E083E0CE
:100920000E941215188E198E1A8E1B8EDF91CF9190
:10093000FF90EF90DF90CF90BF90AF909F908F90FF
:100940000895CF92DF92EF92FF920F931F93CF9370
:10095000DF936331710509F04BC00AE010E0C0E09D
:10096000D0E083E10E94F514C80FD91F015011098E
:10097000C1F76091E9047091EA048091EB049091D1
:10098000EC04681B790B882777FD8095982F0E94CF
:100990004F1C20E030E040E85EE30E94031D6B0145
:1009A0007C01CE016AE070E00E946A1DCB010E94CA
:1009B000E00620E030E040E05FE30E944B1B9B013B
:1009C000AC01C701B6010E94031D6B017C0160915F
:1009D000EB047091EC04882777FD8095982F0E9496
:1009E0004F1C9B01AC01C701B6010E944C1B12C0F9
:1009F0006231710561F482E190E0DF91CF911F9146
:100A00000F91FF90EF90DF90CF900C94820360E005
:100A100070E0CB01DF91CF911F910F91FF90EF908C
:100A2000DF90CF9008958F929F92AF92BF92CF9216
:100A3000DF92EF92FF92CF93DF93EC0188A163E105
:100A400070E0882311F1CE010E94A1046B017C01AA
:100A500082E190E00E9482034B015C0129A13AA14E
:100A60004BA15CA1C701B6010E944B1B6B017C012D
:100A70002DA13EA14FA158A5C501B4010E944B1B59
:100A80009B01AC01C701B60107C0CE010E94A104C1
:100A900029A13AA14BA15CA10E944B1B6B017C01D7
:100AA00020E030E0A9010E94B01B87FF0DC02AE0C2
:100AB00037ED43EA5BEBC701B6010E94FF1C181635
:100AC0001CF4C12CD12C7601C701B601DF91CF9166
:100AD000FF90EF90DF90CF90BF90AF909F908F905E
:100AE00008954F925F926F927F928F929F92AF92F2
:100AF000BF92CF92DF92EF92FF92CF93DF93EC0100
:100B00000E9413054B015C014C8C5D8C6E8C7F8CBC
:100B10009B01AC01C301B2010E944B1B6B017C0124
:100B200089A5882321F122E030E0B301A20188E009
:100B300095E00E94171A67E273E088E095E00E9452
:100B40006C1822E030E0B501A40188E095E00E9435
:100B5000171A67E273E088E095E00E946C1822E0C3
:100B600030E0B701A60188E095E00E94191A8AA535
:100B7000882329F120E030E0A901C701B6010E94D5
:100B8000FF1C18165CF42AE037ED43E25CE3C70172
:100B9000B6010E94B01B181694F00AC02AE037ED87
:100BA00043E25CEBC701B6010E94FF1C87FD07C052
:100BB0006AE273E088E095E00E9479181AA620E0C6
:100BC00030E0A901C701B6010E94B01B2C853D850C
:100BD0004E855F8587FF33C0C701B6010E94031DA4
:100BE0004B015C0120E030E0A9010E94FF1C1816B7
:100BF0001CF4C501B40103C0C501B40190580E94A2
:100C00001C1CAB01BC0185EF94E00E94060C2881FE
:100C100039814A815B81C701B6010E94031D6B01C6
:100C20007C0120E030E0A9010E94FF1CB701A60171
:100C300018160CF07058CE010E945F0432C0C70134
:100C4000B6010E94031D4B015C0120E030E0A901C8
:100C50000E94FF1C18161CF4C501B40103C0C50195
:100C6000B40190580E941C1CAB01BC0185EF94E0BC
:100C70000E944E0C288139814A815B81C701B601EF
:100C80000E94031D6B017C0120E030E0A9010E945D
:100C9000FF1CB701A60118160CF07058CE010E9477
:100CA000350480916004909161040B9744F085EFC6
:100CB00094E00E94FA0C10926104109260048091FA
:100CC00060049091610401969093610480936004A4
:100CD000DF91CF91FF90EF90DF90CF90BF90AF90DA
:100CE0009F908F907F906F905F904F900895CF93DB
:100CF000DF93EC0163E170E00E94A10469A37AA391
:100D00008BA39CA388A1882341F082E190E00E94FC
:100D100082036DA37EA38FA398A7DF91CF9108953F
:100D20000F931F93CF93DF93EC011C8E1D8E1E8EAD
:100D30001F8E188E198E1A8E1B8E18A240E050E05E
:100D400060E87FE3488359836A837B834C835D83B8
:100D50006E837F83488759876A877B8700E010E02E
:100D600020E231E40C871D872E873F87488B598B03
:100D70006A8B7B8B4C8B5D8B6E8B7F8B19A21AA23F
:100D80001BA21CA21DA21EA21FA218A60E947706CB
:100D900019A61AA6DF91CF911F910F91089562E0D5
:100DA0008FE00E949A1562E080E10E949A1562E04D
:100DB0008EE00E949A1560E070E083E00C941215BA
:100DC000BC01882777FD8095982F0E944F1C20E05A
:100DD00030E040E85AE30E94031D20E030E040EAA2
:100DE00050E40E94031D0895CF93C82F0E94091656
:100DF000892B31F48C2F0E940916892BD9F302C05C
:100E000080E001C081E0CF910895CF93DF93CAE0E5
:100E1000D0E0219708F444C066E38DE894E00E9496
:100E2000AD128DE894E00E9497134AE050E060E133
:100E300070E08DE894E00E949F1163E373E08DE819
:100E400094E00E94791843E150E06EE070E08DE894
:100E500094E00E949F116DE373E08DE894E00E949E
:100E600079184EE150E064E270E08DE894E00E9471
:100E70009F114AE050E0BE018DE894E00E942419E1
:100E80008DE894E00E94C4126EED73E080E090E083
:100E90000E9475148FE00E94F406882309F4B9CFEC
:100EA000DF91CF9108958FE00E94F40681110DC06B
:100EB00080E10E94F40681110BC08EE00E94F406CE
:100EC000882349F08EE090E008958FE090E0089547
:100ED00080E190E0089580E090E00895EF920F9314
:100EE0008CE0E82E0BE02AE049E068E08DE894E031
:100EF0000E9411120F91EF900895FC0181E090E0A3
:100F0000938782871586148640917E0450917F04D2
:100F10006091800470918104408351836283738364
:100F20008091ED049091EE04958384838FEF9FEF81
:100F300097838683118610860895CF92DF92EF9271
:100F4000FF920F931F93CF93DF93EC018DE894E012
:100F50000E94971343E050E060E070E08DE894E079
:100F60000E949F1168E473E08DE894E00E946C1881
:100F700082E694E00E941305AB01BC0121E030E061
:100F80008DE894E00E94171A43E050E06AE270E0B6
:100F90008DE894E00E949F116CE473E08DE894E08A
:100FA0000E946C1840917E0450917F0460918004EF
:100FB0007091810421E030E08DE894E00E94191ADC
:100FC000E0918D04F0918E040484F585E02DEE24EB
:100FD000EA94FE2C02E010E024E530E040E050E02E
:100FE00060E070E08DE894E00995E0918D04F09167
:100FF0008E040484F585E02D24E530E04BE050E0DC
:1010000060E070E08DE894E009954EE050E065E026
:1010100070E08DE894E00E949F1169E473E08DE830
:1010200094E00E946C186091F5047091F604809130
:10103000F7049091F8040E944F1C20E030E84BEB3D
:1010400054E40E94B41B20E030E048EC52E40E94DB
:10105000031D0E941C1C4AE050E08DE894E00E94B1
:10106000241960E573E08DE894E00E946C184EE06E
:1010700050E06DE270E08DE894E00E949F1162E51F
:1010800073E08DE894E00E946C1882E694E00E9480
:101090002F0420E030E044E353E40E94B41B20E03E
:1010A00030E048EC52E40E94031D0E941C1C4AE000
:1010B00050E08DE894E00E94241960E573E08DE82B
:1010C00094E00E9479188A859B85892B09F4B6C023
:1010D000CC24CA94DC2C93E0E92EF12C0AE110E038
:1010E00024E530E046E150E060E070E08DE894E017
:1010F0000E94AB0F48E150E068E070E08DE894E0BA
:101100000E949F1165E573E08DE894E00E946C18E1
:1011100040E250E068E070E08DE894E00E949F11AA
:1011200069E573E08DE894E00E946C1848E250E0B5
:1011300068E070E08DE894E00E949F116DE573E037
:101140008DE894E00E946C184A855B854E5F5F4F86
:1011500023E0440F551F2A95E1F762E070E08DE827
:1011600094E00E949F1162E673E08DE894E00E9493
:101170006C188C859D85892B09F460C08A859B85B8
:101180008230910501F18330910509F449C001973E
:1011900009F054C048E150E06EE170E08DE894E061
:1011A0000E949F1161E673E08DE894E00E946C1844
:1011B000488159816A817B8121E030E08DE894E0AB
:1011C0000E94171A3BC040E250E06EE170E08DE8EB
:1011D00094E00E949F1188859985892B49F464E6E3
:1011E00073E08DE894E00E946C188C819D810FC0A3
:1011F00068E673E08DE894E00E946C188E819F8110
:101200008F3F2FEF920719F46CE673E013C026E0CE
:10121000289FB001299F700D11246B587C4F0AC084
:1012200048E250E06EE170E08DE894E00E949F118A
:1012300061E773E08DE894E00E946C188DE894E01B
:10124000DF91CF911F910F91FF90EF90DF90CF90A2
:101250000C94C412CF93DF93EC018C859D85892B70
:1012600009F4B6C08A859B8582309105A1F183304F
:10127000910509F49CC0019709F0CDC06F3071054C
:1012800009F16031710579F06E30710509F0C3C064
:101290002DEC3CEC4CEC5DE3688179818A819B818B
:1012A0000E944C1B0AC02DEC3CEC4CEC5DE36881C9
:1012B00079818A819B810E944B1B688379838A8311
:1012C0009B83A9C0488159816A817B8182E694E031
:1012D0000E94DE037AC06F30710509F440C06031AE
:1012E000710529F06E30710509F095C01CC0888524
:1012F0009985892B61F48C819D8101979D838C83D5
:1013000097FF89C084E090E09D838C8384C08E81A8
:101310009F8101979F838E838F3F9F4F0CF07BC0EF
:1013200084E090E019C088859985892B59F48C81D7
:101330009D8101969D838C8305970CF46CC01D8262
:101340001C8269C08E819F8101969F838E83059741
:101350000CF461C08FEF9FEF9F838E835CC0888504
:101360009985892B29F481E090E09987888753C07B
:101370006C817D8185ED94E00E948F0B6E817F8171
:101380006F3F8FEF780719F41092820407C081E055
:101390008093820485ED94E00E94A60B82E694E09F
:1013A0000E9477061D861C861986188634C06F3009
:1013B000710539F06031710541F06E30710559F5F4
:1013C00004C082E694E00E9477061D861C8623C036
:1013D0006F307105E1F06031710569F06E307105B3
:1013E000D1F48A859B8501969B878A8704979CF018
:1013F00081E090E009C08A859B8501979B878A8759
:10140000892B49F483E090E09B878A8704C081E0C0
:1014100090E09D878C87DF91CF910895CF93DF93E4
:10142000EC0161E574E00E94AF1A61E574E0CE0161
:1014300006960E94AF1A61E574E0CE010C960E94F8
:10144000AF1A81E08A8B41E050E060E070E04B8BA6
:101450005C8B6D8B7E8BDF91CF9108958F929F92E5
:10146000AF92BF92CF92DF92EF92FF920F931F93B2
:10147000CF93DF9300D000D000D0CDB7DEB78C0182
:101480007B01CB01C0970A97D8F4F80182898823A1
:1014900029F0C80106960E94F31A17C0C8010C96DD
:1014A0000E94F31AF8012389348945895689AAE0F4
:1014B000B0E00E94A01D638B748B858B968B05C05A
:1014C0006E32710511F4F801128AC7010E94F31FF0
:1014D000892B21F06E2DC8010E94F31AFAE0EF1655
:1014E000F10409F0D3C0F8012289C801069622232D
:1014F00029F00E943F1B0E944F1C29C00E943F1BE5
:101500006B017C01C8010C960E943F1B4B015C01E2
:10151000C701B6010E944F1C6B017C01C501B401DB
:101520000E944F1C4B015C01F80163897489858915
:1015300096890E944F1C9B01AC01C501B4010E9419
:10154000B41B9B01AC01C701B6010E944C1B6B018F
:101550007C0163E973E0CE0101960E94991ABE01F5
:101560006F5F7F4FC8010E94061BB82ECE01019607
:101570000E942B1ABB2051F120E030E0A901C701E5
:10158000B6010E94FF1C87FD13C020E030E048EC4C
:1015900052E4C701B6010E94B01B87FF09C0B70122
:1015A000A60182E694E00E94DE036DE973E002C0CA
:1015B0006DEA73E088E095E00E946C1822E030E06C
:1015C000B701A60188E095E00E94191A64EC73E067
:1015D000CE0101960E94991ABE016F5F7F4FC8012C
:1015E0000E94061BB82ECE0101960E942B1ABB202A
:1015F00071F06EEC73E088E095E00E946C1822E0D8
:1016000030E0B701A60188E095E00E94191A6FED5D
:1016100073E0CE0101960E94991ABE016F5F7F4F61
:10162000C8010E94061BF82ECE0101960E942B1ABB
:10163000FF2059F061E085EF94E00E94D00B69EE45
:1016400073E088E095E00E94791868EF73E0CE01BE
:1016500001960E94991ABE016F5F7F4FC8010E94D8
:10166000061BF82ECE0101960E942B1AFF2059F07E
:1016700060E085EF94E00E94D00B61E074E088E0C8
:1016800095E00E947918C8010E940E0A26960FB6AE
:10169000F894DEBF0FBECDBFDF91CF911F910F91A8
:1016A000FF90EF90DF90CF90BF90AF909F908F9082
:1016B000089561E574E08EEB94E00E94991A61E56B
:1016C00074E084EC94E00E94991A61E574E08AEC7D
:1016D00094E00C94991A8AEC94E00E942B1A84EC02
:1016E00094E00E942B1A8EEB94E00C942B1AFC01D0
:1016F00082E090E0918F808F84819581958B848B9F
:1017000086859785978B868B178E168E8081918123
:10171000938F828F82859385958F848F0895FC01A6
:101720006530710590F4DB01AA0FBB1FAE0FBF1F20
:101730008D919C911197958B848B1A968D919C918C
:101740001B97978B868B718F608F0895FC01653096
:10175000710590F4DB01AA0FBB1FAE0FBF1F8D9167
:101760009C911197938F828F1A968D919C911B97C4
:10177000958F848F778F668F08958AE0EFEFF2E080
:10178000A5EDB4E001900D928A95E1F78AE0E9E0D9
:10179000F3E0AFEDB4E001900D928A95E1F7089582
:1017A00081E0682786E00C94D3158F929F92AF92C8
:1017B000BF92CF92DF92EF92FF924A015B01C12C60
:1017C000D12C7601C814D904EA04FB04B4F461E016
:1017D00085E00E94D31586E990E00E94AF1460E096
:1017E00085E00E94D3158AEF90E00E94AF148FEF3E
:1017F000C81AD80AE80AF80AE5CFFF90EF90DF9000
:10180000CF90BF90AF909F908F900895CF92DF922E
:10181000EF92FF92CF93DF93EC016A017B0160E0CE
:1018200084E00E94D31588819981AA81BB81AC0193
:10183000BD014C0D5D1D6E1D7F1D4D3D554061056B
:101840007105A4F02CEDC22E25E0D22EE12CF12C56
:10185000B701A601481B590B6A0B7B0BCE010E94F6
:10186000D50BC882D982EA82FB8211C0B701A601DA
:10187000CE010E94D50B88819981AA81BB818C0DF4
:101880009D1DAE1DBF1D88839983AA83BB83DF91F5
:10189000CF91FF90EF90DF90CF900895CF92DF929D
:1018A000EF92FF92CF93DF93EC016A017B01888175
:1018B0009981AA81BB8161E08C159D05AE05BF05AC
:1018C000ACF084E00E94D315B701A601CE010E94BE
:1018D000D50B88819981AA81BB818C199D09AE099C
:1018E000BF0988839983AA83BB830EC084E00E94CA
:1018F000D315488159816A817B81CE010E94D50B25
:10190000188219821A821B82DF91CF91FF90EF908B
:10191000DF90CF900895CF92DF92EF92FF920F93D6
:101920001F93CF93DF93EC016A017B01088119813A
:101930002A813B8104171507260737073CF4401B13
:10194000510B620B730B0E94060C08C0B901A80171
:101950004C195D096E097F090E944E0CC882D9821C
:10196000EA82FB82DF91CF911F910F91FF90EF9060
:10197000DF90CF9008950F931F93CF93DF93EC01E7
:1019800061E084E00E949A1561E085E00E949A156A
:1019900061E086E00E949A1561E084E00E94D31520
:1019A00061E086E00E94D31560E085E00E94D315D7
:1019B00080E090E00E942720082F81E090E00E94C4
:1019C0002720182FA801662757FD6095762F48839A
:1019D00059836A837B8360E086E00E94D3154CEDD7
:1019E00055E060E070E0CE01DF91CF911F910F9143
:1019F0000C948B0CCF93FC016081C18180E090E05E
:101A00000E942F206C2F81E090E0CF910C942F202A
:101A10002F923F924F925F926F927F928F929F92FE
:101A2000AF92BF92CF92DF92EF92FF920F931F93EC
:101A3000CF93DF9300D000D0CDB7DEB74C017C83CD
:101A40006B836A015901C8018701AC014C195D091A
:101A500057FF03C051954195510995016B817C81D8
:101A6000261B370B37FF03C03195219531092224FE
:101A70002394312C2417350714F0212C312C2114F8
:101A8000310459F03A2D2B2D5C01832F922F3B818D
:101A90002C81DC82CB82C32ED22EAB81BC81AA16D4
:101AA000BB065CF43C2D2D2D6C01832F922F3B81C6
:101AB0002C81BC82AB82A32EB22E2501EB81FC814E
:101AC0004E1A5F0A3C016C187D0877FE03C07194C2
:101AD00061947108720157FE03C0FFEFEF1AFF0A0D
:101AE000F594E794C816D9062CF421E030E03A8347
:101AF000298324C06FEF7FEF7A8369831FC0D401ED
:101B0000ED91FC910480F581E02D980121143104C0
:101B1000D9F04B815C81B601C4010995E618F7083C
:101B2000F7FE06C0E981FA81CE0EDF1EE40CF51C3B
:101B30002B813C812F5F3F4F3C832B836B817C81CA
:101B4000A616B706E4F604C0A6016B817C81E4CF3B
:101B50000F900F900F900F90DF91CF911F910F91E9
:101B6000FF90EF90DF90CF90BF90AF909F908F90BD
:101B70007F906F905F904F903F902F9008956F925D
:101B80007F928F929F92AF92BF92CF92DF92EF920D
:101B9000FF920F931F93CF93DF93EC015B016A01D8
:101BA00039014801E881F9810284F385E02D87013C
:101BB0000995E881F981A601480D591D4150510947
:101BC0000284F385E02D9301B501CE010995E881EA
:101BD000F9810084F185E02D9401A601B501CE01C3
:101BE0000995E881F981B501660D771D615071098C
:101BF0000084F185E02D9401A601CE010995DF91C5
:101C0000CF911F910F91FF90EF90DF90CF90BF90F9
:101C1000AF909F908F907F906F900895EF92FF927A
:101C20000F931F93DC01ED91FC91240F351F215080
:101C300031090680F781E02D780189019B01099522
:101C40001F910F91FF90EF900895EF92FF920F93E5
:101C50001F93DC01ED91FC91260F371F21503109B4
:101C60000680F781E02D78018A0109951F910F9177
:101C7000FF90EF9008956F927F928F929F92AF9214
:101C8000BF92CF92DF92EF92FF920F931F93CF9369
:101C9000DF935C014A0169013801EB01C60ED71ED2
:101CA000CC15DD0574F4D501ED91FC910084F1852E
:101CB000E02D87019301A401BE01C501099521967C
:101CC000EFCFDF91CF911F910F91FF90EF90DF90B9
:101CD000CF90BF90AF909F908F907F906F9008951E
:101CE000EF92FF920F931F93DC01ED91FC911197FE
:101CF0001A960D911C911B9718962D913C9119974E
:101D00000684F785E02D7B0140E050E060E070E064
:101D100009951F910F91FF90EF9008950895FC0190
:101D20001382128283E194E09183808375836483BC
:101D3000578346837187608753874287158A158644
:101D400014861786168621E0248B8FEF9FEF938BE6
:101D5000828B918B808B268B178A08952F923F92CE
:101D60004F925F926F927F928F929F92AF92BF92AB
:101D7000CF92DF92EF92FF920F931F93CF93DF9357
:101D800000D000D000D0CDB7DEB79E838D834B014D
:101D90003A016901802F44244394512C421A530A7A
:101DA00022243324221A330A220C331CAA24A3949B
:101DB000B12C01E010E0982F94709983A82FA270A5
:101DC000AA83B82FB870BB8381708C83C50101973B
:101DD0008C159D050CF0A6C057FC08C0E1E0CE1A9A
:101DE000D108F2E02F0E311C420C531C0E5F1F4F26
:101DF000400E511E8981882311F1AD81BE81ED9184
:101E0000FC9111970480F581E02D9701A3014C0D01
:101E10005D1DB501680D791DCD010995AD81BE81AE
:101E2000ED91FC9111970480F581E02D9701A501BA
:101E3000460D571DB4016C0D7D1DCD010995BA816C
:101E4000BB2311F1AD81BE81ED91FC91119704800E
:101E5000F581E02D9701A3014C195D09B501680DCD
:101E6000791DCD010995AD81BE81ED91FC91119750
:101E70000480F581E02D9701A3014A195B09B401A3
:101E80006C0D7D1DCD010995BB81BB2311F1AD8189
:101E9000BE81ED91FC9111970480F581E02D9701B1
:101EA000A501460D571DB4016C197D09CD01099599
:101EB000AD81BE81ED91FC9111970480F581E02DFB
:101EC0009701A3014C0D5D1DB4016A197B09CD0179
:101ED0000995BC81BB2311F1AD81BE81ED91FC91CF
:101EE00011970480F581E02D9701A3014A195B0940
:101EF000B4016C197D09CD010995AD81BE81ED91CB
:101F0000FC9111970480F581E02D9701A3014C19F4
:101F10005D09B4016A197B09CD010995BFEFAB1AC0
:101F2000BB0A54CF26960FB6F894DEBF0FBECDBFC6
:101F3000DF91CF911F910F91FF90EF90DF90CF90A5
:101F4000BF90AF909F908F907F906F905F904F90D9
:101F50003F902F9008952F923F924F925F926F92F1
:101F60007F928F929F92AF92BF92CF92DF92EF9229
:101F7000FF920F931F93CF93DF93CDB7DEB72897D0
:101F80000FB6F894DEBF0FBECDBF98878F833B019D
:101F90004A013C832B831E830D835701EE24FF24CB
:101FA000EA18FB08EE0CFF1CC9018E0D9F1D9A83D9
:101FB00089832B014A0C5B1CAF81B885ED91FC91A4
:101FC00011970284F385E02D86019C01A401B201E2
:101FD000CD0109952D803E80280C391CAF81B88534
:101FE000ED91FC911197A101415051090284F385B3
:101FF000E02D29813A81B201CD010995ED81FE8163
:10200000EE0EFF1E8A0C9B1CAF81B885ED91FC91F2
:1020100011970084F185E02D9701A401B301CD0152
:102020000995EB81FC816E0E7F1EAF81B885ED9125
:10203000FC911197B301615071090084F185E02D85
:102040009701A401CD010995760101E09501A40154
:10205000B2018F8198850E94AE0E6A187B08B1E0AC
:102060006B1A710802E09501A401B3018F81988574
:102070000E94AE0E41018A189B08E1E08E1A910879
:1020800004E09501A401B3018F8198850E94AE0EF2
:1020900008E09501A401B2018F8198850E94AE0EDF
:1020A00028960FB6F894DEBF0FBECDBFDF91CF915B
:1020B0001F910F91FF90EF90DF90CF90BF90AF9066
:1020C0009F908F907F906F905F904F903F902F9058
:1020D00008952F923F924F925F926F927F928F92CC
:1020E0009F92AF92BF92CF92DF92EF92FF920F93A7
:1020F0001F93CF93DF93CDB7DEB72C970FB6F8942D
:10210000DEBF0FBECDBF9C878B873A0118870F8338
:10211000FA86E986CD82DC0118968D919C911997FB
:10212000681779070CF09EC01A968D919C911B97A9
:10213000481759070CF096C08C2C912CCB01B6E0B7
:10214000CB9E800D911D1124181619060CF08AC023
:10215000C401E3E0880F991FEA95E1F7840F951F0A
:10216000181619060CF07EC0AB85BC8557968C916D
:10217000811103C0203B08F02F5F5B016B011C82C3
:1021800058E6452E50E0552E461A570AB5E02B9FCB
:10219000400C511C1124EC81E53031F0F201EA0DC4
:1021A000FB1D24912B8301C01B827A82698213015B
:1021B0001E823B8130FF13C0AB85BC85ED91FC9145
:1021C000BD81B13031F40480F581E02D2F81388557
:1021D00019C00684F785E02DEF80F8841EC0E985DC
:1021E000FA852F813885E217F307F9F0AB85BC85B6
:1021F000ED91FC91BD81B13059F40480F581E02D61
:1022000029853A85A101B5018B859C8509950DC06D
:102210000684F785E02DE984FA84840194014981DC
:102220005A81B6018B859C850995EB81E695EB83F8
:10223000FE81FF5FFE8329813A81280D391D3A8393
:1022400029833FEF231A330AF83009F0B2CF4C81CB
:102250004F5F4C83C80CD91C8FEFA81AB80A4630C0
:1022600009F099CF2C960FB6F894DEBF0FBECDBF04
:10227000DF91CF911F910F91FF90EF90DF90CF9062
:10228000BF90AF909F908F907F906F905F904F9096
:102290003F902F900895CF92EF92FF920F931F934C
:1022A000CF93DF93EC01262F6A3049F42C898E8579
:1022B0009F8538E0239F800D911D112432C06D3021
:1022C000A1F1EA88FB88088919894E855F856C85AC
:1022D0007D85CC880E9469102C89422F50E08C8526
:1022E0009D8536E0239F800D911D11249D878C874D
:1022F0002E892223D1F06AEF64039001659F300D8F
:10230000112468857985260F371F281739076CF443
:10231000F3E0440F551FFA95E1F78E859F85840FF2
:10232000951F9F878E871D861C8681E090E0DF9138
:10233000CF911F910F91FF90EF90CF900895FC01E6
:1023400075876487578746870895FC0177FD68C0C5
:1023500080859185681779070CF062C057FD60C0D1
:1023600082859385481759070CF05AC085898230B9
:1023700059F08330B1F08130D1F48FE290E0861BC8
:10238000970BBA01AC0113C083E590E0FC01E61B9A
:10239000F70BBF018FE290E0FC01E41BF50BAF01EE
:1023A00006C083E590E0841B950BAB01BC0164354E
:1023B0007105B0F54033510598F5CA01E3E09595F4
:1023C0008795EA95E1F747705527232BA1F024E57F
:1023D000289FF001299FF00D1124E60FF71FEA5FF7
:1023E000FE4F81E090E0042E01C0880F0A94EAF7C6
:1023F0009081982B14C024E5289FF001299FF00DAF
:102400001124E60FF71FEA5FFE4F81E090E0042EF3
:1024100001C0880F0A94EAF78095908198239083F1
:102420000895CF92DF92EF92FF920F931F93CF9375
:10243000DF931F92CDB7DEB76C01162FF42E40E369
:1024400050E064E570E029830E948F0E8BE294E0F7
:10245000F60191838083F08E118F2981228FE38E84
:10246000048F0F90DF91CF911F910F91FF90EF900C
:10247000DF90CF900895FC01808D8F3F21F481E0A3
:10248000918D9F3F09F080E008950F931F93CF93A4
:10249000DF931F92CDB7DEB78C0169830E943B1298
:1024A0006981882339F06EBD00000DB407FEFDCFB1
:1024B0008EB52DC088E090E030E8D8015F96ED91B0
:1024C000FC919097408192962C919297209524238D
:1024D00020835D96ED91FC915E9791962C91432F10
:1024E000462321F04081422B408304C04081209547
:1024F00024232083D8015F96ED91FC919097208151
:1025000092964C91242B208336950197B1F60F902B
:10251000DF91CF911F910F9108951F93CF93DF9378
:10252000EC01162F60E08A8D0E94D3158C8D181651
:102530001CF460E00E94D315612FCE010E94451269
:102540008C8D181634F461E0DF91CF911F910C94BB
:10255000D315DF91CF911F9108951F93CF93DF93F0
:10256000EC01162F67FD1FE761E2CE010E948D127C
:10257000612F6068CE010E948D1260E2CE01DF9172
:10258000CF911F910C948D12DF92EF92FF920F93D7
:102590001F93CF93DF93EC01F6E0EF2EF1E0FF2ED7
:1025A000D12C6D2D6064CE010E948D1260E8CE01A9
:1025B0000E948D1261E08A8D0E94D3158C8D1816B1
:1025C0001CF460E00E94D31500E010E0F701E00F7A
:1025D000F11F6081CE010E9445120F5F1F4F04352D
:1025E0001105A1F78C8D18161CF461E00E94D3151B
:1025F000D39484E5E80EF11C86E0D812D2CF60E4D3
:10260000CE01DF91CF911F910F91FF90EF90DF905E
:102610000C948D120F931F93CF93DF93EC01162F21
:10262000042F0E943B12882379F00E94AB138CB5D3
:102630008C7F8CBD8DB58E7F8DBD8CB5837F8CBD21
:102640008CB58F7D8CBD34C061E0888D0E949A1559
:1026500061E0898D0E949A15898D992787FD909553
:10266000FC01E057FA4FE491F0E0EE0FFF1FE25556
:10267000FA4F2591349138A32F8FFC01E458FA4F7B
:1026800084918AA3888D992787FD9095FC01E05756
:10269000FA4FE491F0E0EE0FFF1FE255FA4F25915B
:1026A00034913E8F2D8FFC01E458FA4F849189A319
:1026B00061E08A8D0E949A158B8D18161CF461E0DA
:1026C0000E949A158C8D18161CF461E00E949A15D0
:1026D0008B8D18166CF460E00E94D31564EF71E0E6
:1026E00080E090E00E94751461E08B8D0E94D3150C
:1026F00061E2CE010E948D12602F6061CE010E94C6
:102700008D1217FD1FE7612F6068CE010E948D12A8
:1027100060E2CE010E948D126CE0CE010E948D120B
:10272000CE01DF91CF911F910F910C94C41228EF2D
:1027300031E0E6E0F1E0DF01A9011D924150504097
:10274000E1F7DC011D961C921E921C971F961C92AD
:102750001E921E970895CF93CFB7F8948091F904F5
:10276000811127C0EAE9F5E08491E6E8F5E094916B
:10277000E82FF0E0EE0FFF1FE854FA4FA591B49157
:102780008C91892321F461E08AE00E94D31561E0F5
:102790008AE00E949A158CB580618CBD8CB58064EE
:1027A0008CBD61E08DE00E949A1561E08BE00E9493
:1027B0009A158091F9048F5F8093F904CFBFCF9170
:1027C00008951F920F920FB60F9211242F933F93EB
:1027D0004F935F936F937F938F939F93AF93BF9329
:1027E000EF93FF93E091FA04F091FB040995FF91B8
:1027F000EF91BF91AF919F918F917F916F915F9179
:102800004F913F912F910F900FBE0F901F901895F1
:102810001F920F920FB60F9211242F933F938F9315
:102820009F93AF93BF938091000590910105A09174
:102830000205B09103053091FF0423E0230F2D37EB
:1028400020F40196A11DB11D05C026E8230F0296B4
:10285000A11DB11D2093FF048093000590930105F5
:10286000A0930205B093030580910405909105059E
:10287000A0910605B09107050196A11DB11D809399
:10288000040590930505A0930605B0930705BF9135
:10289000AF919F918F913F912F910F900FBE0F900D
:1028A0001F9018953FB7F894809104059091050505
:1028B000A0910605B091070526B5A89B05C02F3F3E
:1028C00019F00196A11DB11D3FBF6627782F892FF2
:1028D0009A2F620F711D811D911D42E0660F771FB7
:1028E000881F991F4A95D1F708958F929F92AF92B2
:1028F000BF92CF92DF92EF92FF926B017C010E9418
:1029000052144B015C01C114D104E104F104F1F053
:102910000E944A1B0E945214681979098A099B096E
:10292000683E73408105910570F321E0C21AD10819
:10293000E108F10888EE880E83E0981EA11CB11C06
:10294000C114D104E104F10429F7DDCFFF90EF9029
:10295000DF90CF90BF90AF909F908F90089582307E
:10296000910538F0880F991F880F991F05970197D7
:10297000F1F70895789484B5826084BD84B5816050
:1029800084BD85B5826085BD85B5816085BDEEE677
:10299000F0E0808181608083E1E8F0E01082808156
:1029A00082608083808181608083E0E8F0E08081C4
:1029B00081608083E1EBF0E0808184608083E0EBE4
:1029C000F0E0808181608083EAE7F0E080818460CC
:1029D0008083808182608083808181608083808128
:1029E000806880831092C10008958E3008F08E5068
:1029F00087702091FE0290E4299F90011124822B80
:102A000080937C0080917A00806480937A0080912A
:102A10007A0086FDFCCF809178002091790090E0CB
:102A2000922B08951F93CF93DF93182FEB0161E052
:102A30000E949A15209711F460E004C0CF3FD105A1
:102A400039F461E0812FDF91CF911F910C94D31560
:102A5000E12FF0E0E859FA4FE491E330F9F048F45F
:102A6000E130B9F0E230A1F584B5806284BDC8BD23
:102A700034C0E730E9F0E83019F1E43049F58091ED
:102A80008000806280938000D0938B00C0938A0086
:102A900024C084B5806884BDC7BD1FC080918000FC
:102AA000806880938000D0938900C093880015C00F
:102AB0008091B00080688093B000C093B3000DC0D7
:102AC0008091B00080628093B000C093B40005C0D4
:102AD000C038D1050CF0B5CFAFCFDF91CF911F91AA
:102AE0000895833081F028F4813099F08230A1F08C
:102AF00008958730A9F08830B9F08430D1F48091FE
:102B000080008F7D03C0809180008F77809380004C
:102B1000089584B58F7702C084B58F7D84BD0895F4
:102B20008091B0008F7703C08091B0008F7D80933B
:102B3000B0000895CF93DF9390E0FC01E458FA4F82
:102B40002491FC01E057FA4F8491882349F190E0E9
:102B5000880F991FFC01E854FA4FA591B491825552
:102B60009A4FFC01C591D4919FB7611108C0F894A8
:102B70008C91209582238C93888182230AC06230B5
:102B800051F4F8948C91322F309583238C93888163
:102B9000822B888304C0F8948C91822B8C939FBFE6
:102BA000DF91CF9108950F931F93CF93DF931F92DF
:102BB000CDB7DEB7282F30E0F901E859FA4F8491FC
:102BC000F901E458FA4F1491F901E057FA4F0491D2
:102BD0000023C9F0882321F069830E94711569815F
:102BE000E02FF0E0EE0FFF1FE255FA4FA591B491F0
:102BF0009FB7F8948C91611103C01095812301C097
:102C0000812B8C939FBF0F90DF91CF911F910F91DC
:102C10000895CF93DF93282F30E0F901E859FA4F58
:102C20008491F901E458FA4FD491F901E057FA4F31
:102C3000C491CC2391F081110E947115EC2FF0E02A
:102C4000EE0FFF1FEC55FA4FA591B4912C912D2357
:102C500081E090E021F480E002C080E090E0DF912C
:102C6000CF9108950E94C51FFC01818D228D90E0B7
:102C7000805C9F4F821B91098F7399270895FC01F7
:102C8000918D828D981731F0828DE80FF11D858D21
:102C900090E008958FEF9FEF0895FC01918D828D54
:102CA000981761F0828DDF01A80FB11D5D968C91A0
:102CB000928D9F5F9F73928F90E008958FEF9FEFAB
:102CC000089581ED97E1892B49F080E090E0892B10
:102CD00029F00E94D11781110C9400000895FC0185
:102CE000848DDF01A80FB11DA35ABF4F2C91848D95
:102CF00090E001968F739927848FA689B7892C93CA
:102D0000A089B1898C9180648C93938D848D981364
:102D100006C00288F389E02D80818F7D808308952D
:102D2000CF93DF93EC01888D8823C9F0EA89FB8972
:102D3000808185FD05C0A889B9898C9186FD0FC069
:102D40000FB607FCF5CF808185FFF2CFA889B9893E
:102D50008C9185FFEDCFCE010E946F16E7CFDF91FA
:102D6000CF910895CF92DF92FF920F931F93CF934D
:102D7000DF931F92CDB7DEB76C0181E0D601589684
:102D80008C9358975B969C915B975C968C915C9723
:102D9000981307C05096ED91FC915197808185FD65
:102DA0002EC0F601038D10E00F5F1F4F0F73112728
:102DB000F02EF601848DF81211C00FB607FCF9CF82
:102DC000D6015096ED91FC915197808185FFF1CF0E
:102DD000C60169830E946F166981EBCF838DE80F6E
:102DE000F11DE35AFF4F6083D6015B960C935B970E
:102DF0005296ED91FC915397808180620CC0D60170
:102E00005696ED91FC91579760835096ED91FC9109
:102E1000519780818064808381E090E00F90DF9102
:102E2000CF911F910F91FF90DF90CF900895BF92A7
:102E3000CF92DF92EF92FF92CF93DF93EC016A0182
:102E40007B01B22EE889F98982E08083411581EE09
:102E5000580761057105A1F060E079E08DE390E02D
:102E6000A70196010E947E1D215031094109510997
:102E70005695479537952795211580E1380798F0A5
:102E8000E889F989108260E874E88EE190E0A70192
:102E900096010E947E1D2150310941095109569524
:102EA000479537952795EC85FD853083EE85FF8521
:102EB0002083188EEC89FD89B082EA89FB898081A4
:102EC00080618083EA89FB89808188608083EA89C8
:102ED000FB89808180688083EA89FB8980818F7D7E
:102EE0008083DF91CF91FF90EF90DF90CF90BF90E4
:102EF00008951F920F920FB60F9211242F938F9364
:102F00009F93EF93FF93E0911805F091190580814D
:102F1000E0911E05F0911F0582FD12C09081809105
:102F200021058F5F8F7320912205821751F0E09168
:102F30002105F0E0E85FFA4F958F8093210501C0ED
:102F40008081FF91EF919F918F912F910F900FBEF4
:102F50000F901F9018951F920F920FB60F92112489
:102F60002F933F934F935F936F937F938F939F9391
:102F7000AF93BF93EF93FF9388E095E00E946F16A5
:102F8000FF91EF91BF91AF919F918F917F916F9141
:102F90005F914F913F912F910F900FBE0F901F9017
:102FA000189588E095E00E94341621E0892B09F4F9
:102FB00020E0822F089510920B0510920A0588EEEA
:102FC00093E0A0E0B0E080930C0590930D05A093F2
:102FD0000E05B0930F0583E494E090930905809368
:102FE000080585EC90E0909315058093140584EC1A
:102FF00090E0909317058093160580EC90E09093F5
:1030000019058093180581EC90E090931B0580933F
:103010001A0582EC90E090931D0580931C0586ECC8
:1030200090E090931F0580931E0510922105109249
:1030300022051092230510922405089508950E94F8
:10304000BA140E941E180E941403C1E6D6E10E9421
:1030500060032097E1F30E946116F9CFCF92DF92CF
:10306000EF92FF920F931F93CF93DF937C016A013E
:10307000EB0100E010E00C151D0571F06991D7011E
:10308000ED91FC910190F081E02DC7010995892B0C
:1030900019F00F5F1F4FEFCFC801DF91CF911F9144
:1030A0000F91FF90EF90DF90CF900895611571051B
:1030B00081F0DB010D900020E9F7AD01415051098D
:1030C000461B570BDC01ED91FC910280F381E02D52
:1030D000099480E090E008950C945618DC01ED917D
:1030E000FC910190F081E02D09946FE474E00C9460
:1030F00056180F931F93CF93DF93EC010E9456183D
:103100008C01CE010E947518800F911FDF91CF9125
:103110001F910F9108958F929F92AF92BF92DF926D
:10312000EF92FF920F931F93CF93DF93CDB7DEB74C
:10313000A1970FB6F894DEBF0FBECDBF7C01F42F70
:10314000D52ECB0119A2223008F42AE08E010F5DA2
:103150001F4F822E912CA12CB12C6F2F7D2DA501FC
:1031600094010E947E1DF22FD32ECA010150110935
:103170006A3014F4E0E301C0E7E3E60FD801EC9312
:10318000232B242B252B49F7B801C7010E94561881
:10319000A1960FB6F894DEBF0FBECDBFDF91CF91E1
:1031A0001F910F91FF90EF90DF90BF90AF909F9095
:1031B0008F900895CF92DF92EF92FF920F931F931B
:1031C000CF93DF93EC016A017B012115310579F47E
:1031D000E881F9810190F081E02D642FDF91CF919A
:1031E0001F910F91FF90EF90DF90CF9009942A30BC
:1031F0003105E9F477FF1AC06DE20E946E188C0168
:1032000044275527BA014C195D096E097F092AE048
:10321000CE010E948B18800F911FDF91CF911F91DB
:103220000F91FF90EF90DF90CF9008952AE0B701C3
:10323000A601CE01DF91CF911F910F91FF90EF90EA
:10324000DF90CF900C948B189A01AB01662757FD45
:103250006095762F0C94DA184F925F926F927F925E
:103260008F929F92AF92BF92CF92DF92EF92FF9296
:103270000F931F93CF93DF93EC016A017B01B22E72
:103280009A01AB01C701B6010E94661D882319F09F
:1032900062E574E027C026013701E89477F82FEF44
:1032A0003FEF4FE75FE7C301B2010E94661D811146
:1032B0000DC02FEF3FEF4FE75FE7C301B2010E9460
:1032C000B01B18161CF466E574E00CC02FEF3FEF3E
:1032D0004FE75FE4C701B6010E94FF1C1816ACF46B
:1032E0006AE574E0CE01DF91CF911F910F91FF90BD
:1032F000EF90DF90CF90BF90AF909F908F907F9096
:103300006F905F904F900C9456182FEF3FEF4FE760
:103310005FECC701B6010E94B01B87FDE1CF20E042
:1033200030E0A901C701B6010E94B01B87FF0AC0A7
:103330006DE2CE010E946E188C01F7FAF094F7F856
:10334000F09402C000E010E0A12C60E070E080E0AA
:103350009FE3AB1441F020E030E040E251E40E94F2
:10336000B41BA394F6CF9B01AC01C701B6010E9428
:103370004C1B6B017C010E94211C2B013C010E9413
:103380004D1C9B01AC01C701B6010E944B1B6B0198
:103390007C012AE0B301A201CE010E948B18080F24
:1033A000191FBB2039F06EE574E0CE010E9456185B
:1033B000080F191F7B2C772041F120E030E040E21C
:1033C00051E4C701B6010E94031D6B017C010E94FC
:1033D0001C1C4B01AA2497FCA094BA2C2AE030E0D4
:1033E000B501A401CE010E94DA18080F191FC5010A
:1033F000B4010E944F1C9B01AC01C701B6010E94A1
:103400004B1B6B017C017A94D6CFC801DF91CF9121
:103410001F910F91FF90EF90DF90CF90BF90AF90F2
:103420009F908F907F906F905F904F9008950C9435
:103430002C190F931F93CF93DF93EC010E942C194B
:103440008C01CE010E947518800F911FDF91CF91E2
:103450001F910F910895FC01808191810C946C1E45
:10346000CF93DF93EC0188819981009711F00E943E
:103470006C1E198218821D821C821B821A82DF91A7
:10348000CF9108950F931F93CF93DF93EC018B019E
:103490006F5F7F4F888199810E94FB1E009731F0FA
:1034A000998388831B830A8381E001C080E0DF91D8
:1034B000CF911F910F910895CF93DF93EC018881F5
:1034C0009981892B29F08A819B818617970760F45F
:1034D000CE010E94421A882341F08C819D81892B64
:1034E00019F4E881F981108281E0DF91CF9108958C
:1034F000EF92FF920F931F93CF93DF93EC017B0129
:103500008A01BA010E945C1A811104C0CE010E9496
:10351000301A07C01D830C83B701888199810E94EE
:103520000B20CE01DF91CF911F910F91FF90EF9073
:103530000895FC0111821082138212821582148276
:103540006115710559F0FB0101900020E9F7AF0109
:1035500041505109461B570B0C94781A0895CF938C
:10356000DF93EC016115710561F0FB010190002012
:10357000E9F7AF0141505109461B570B0E94781AD9
:1035800002C00E94301ACE01DF91CF910895EF92D0
:10359000FF920F931F93CF93DF93EC017B010C817C
:1035A0001D816115710511F480E016C041155105AA
:1035B00091F0040F151FB8010E945C1A8823A1F333
:1035C000288139818C819D81B701820F931F0E94D0
:1035D0000B201D830C8381E0DF91CF911F910F9110
:1035E000FF90EF900895CF93DF9300D0CDB7DEB773
:1035F00069831A8241E050E0BE016F5F7F4F0E94F5
:10360000C71A0F900F90DF91CF910895EF92FF921C
:103610000F931F93CF93DF938617970731F1FC0128
:1036200024813581FB014481558124173507F9F444
:10363000232BD9F0FC0100811181FB01C081D181D4
:10364000F80181918F01882381F0992787FD90955A
:103650000E94FA1F7C018991992787FD90950E940D
:10366000FA1FE816F90661F302C081E001C080E0AC
:10367000DF91CF911F910F91FF90EF900895FC0182
:1036800080819181009711F00C94CA1F60E070E076
:10369000CB01089508955058BB27AA270ED075C1B5
:1036A00066D130F06BD120F031F49F3F11F41EF45D
:1036B0005BC10EF4E095E7FB51C1E92F77D180F3B0
:1036C000BA17620773078407950718F071F49EF51F
:1036D0008FC10EF4E0950B2EBA2FA02D0B01B9016E
:1036E00090010C01CA01A0011124FF27591B99F078
:1036F000593F50F4503E68F11A16F040A22F232F84
:10370000342F4427585FF3CF469537952795A795D3
:10371000F0405395C9F77EF41F16BA0B620B730B7A
:10372000840BBAF09150A1F0FF0FBB1F661F771FEB
:10373000881FC2F70EC0BA0F621F731F841F48F4A0
:10374000879577956795B795F7959E3F08F0B3CF26
:103750009395880F08F09927EE0F97958795089510
:10376000D9D008F481E008950CD00FC107D140F002
:10377000FED030F021F45F3F19F0F0C0511139C193
:10378000F3C014D198F39923C9F35523B1F3951BD2
:10379000550BBB27AA2762177307840738F09F5F72
:1037A0005F4F220F331F441FAA1FA9F333D00E2EE1
:1037B0003AF0E0E830D091505040E695001CCAF74E
:1037C00029D0FE2F27D0660F771F881FBB1F261713
:1037D00037074807AB07B0E809F0BB0B802DBF01E6
:1037E000FF2793585F4F2AF09E3F510568F0B6C0FF
:1037F00000C15F3FECF3983EDCF3869577956795C3
:10380000B795F7959F5FC9F7880F911D9695879596
:1038100097F90895E1E0660F771F881FBB1F6217B5
:1038200073078407BA0720F0621B730B840BBA0B73
:10383000EE1F88F7E095089504D06894B111D9C0BF
:103840000895BCD088F09F5790F0B92F9927B751B1
:10385000A0F0D1F0660F771F881F991F1AF0BA9554
:10386000C9F712C0B13081F0C3D0B1E00895C0C033
:10387000672F782F8827B85F39F0B93FCCF386954A
:1038800077956795B395D9F73EF4909580957095A7
:1038900061957F4F8F4F9F4F0895E89409C097FB24
:1038A0003EF490958095709561957F4F8F4F9F4F17
:1038B0009923A9F0F92F96E9BB279395F69587955B
:1038C00077956795B795F111F8CFFAF4BB0F11F41E
:1038D00060FF1BC06F5F7F4F8F4F9F4F16C08823C5
:1038E00011F096E911C0772321F09EE8872F762FFB
:1038F00005C0662371F096E8862F70E060E02AF03C
:103900009A95660F771F881FDAF7880F9695879527
:1039100097F90895990F0008550FAA0BE0E8FEEFFC
:1039200016161706E807F907C0F012161306E40783
:10393000F50798F0621B730B840B950B39F40A267C
:1039400061F0232B242B252B21F408950A2609F45A
:10395000A140A6958FEF811D811D089597F99F675E
:1039600080E870E060E008959FEF80EC0895002407
:103970000A941616170618060906089500240A94D4
:1039800012161306140605060895092E0394000C5A
:1039900011F4882352F0BB0F40F4BF2B11F460FFE9
:1039A00004C06F5F7F4F8F4F9F4F089557FD905812
:1039B000440F551F59F05F3F71F04795880F97FBF3
:1039C000991F61F09F3F79F08795089512161306AD
:1039D0001406551FF2CF4695F1DF08C016161706DC
:1039E0001806991FF1CF8695710561050894089511
:1039F000E894BB2766277727CB0197F908958ADFDC
:103A000008F48FEF08950BD0C0CFB1DF28F0B6DFF8
:103A100018F0952309F0A2CFA7CF1124EACFC6DF73
:103A2000A0F3959FD1F3950F50E0551F629FF001D1
:103A3000729FBB27F00DB11D639FAA27F00DB11D2A
:103A4000AA1F649F6627B00DA11D661F829F2227B3
:103A5000B00DA11D621F739FB00DA11D621F839F3A
:103A6000A00D611D221F749F3327A00D611D231F10
:103A7000849F600D211D822F762F6A2F11249F575E
:103A800050408AF0E1F088234AF0EE0FFF1FBB1F81
:103A9000661F771F881F91505040A9F79E3F510520
:103AA00070F05CCFA6CF5F3FECF3983EDCF38695D9
:103AB00077956795B795F795E7959F5FC1F7FE2BCB
:103AC000880F911D9695879597F9089523DF880BA8
:103AD000990B089597FB072E16F4009407D077FDF5
:103AE00009D00E94AB1D07FC05D03EF4909581954E
:103AF0009F4F0895709561957F4F0895A1E21A2E0A
:103B0000AA1BBB1BFD010DC0AA1FBB1FEE1FFF1F81
:103B1000A217B307E407F50720F0A21BB30BE40BD1
:103B2000F50B661F771F881F991F1A9469F7609518
:103B30007095809590959B01AC01BD01CF010895D2
:103B40000E94C51DA59F900DB49F900DA49F800D50
:103B5000911D11240895AA1BBB1B51E107C0AA1F88
:103B6000BB1FA617B70710F0A61BB70B881F991F1E
:103B70005A95A9F780959095BC01CD010895EE0F57
:103B8000FF1F0590F491E02D0994A29FB001B39F0F
:103B9000C001A39F700D811D1124911DB29F700D56
:103BA000811D1124911D0895CF93DF9382309105DB
:103BB00010F482E090E0E091A705F091A80520E0E4
:103BC00030E0A0E0B0E0309739F1408151814817F2
:103BD0005907B8F04817590771F4828193811097FB
:103BE00029F013969C938E9312972CC09093A8055E
:103BF0008093A70527C02115310531F042175307DF
:103C000018F0A901DB0101C0EF019A01BD01DF013C
:103C10000280F381E02DD7CF21153105F9F0281B63
:103C2000390B2430310580F48A819B81611571053F
:103C300021F0FB019383828304C09093A8058093B5
:103C4000A705FE01329644C0FE01E20FF31F8193E7
:103C5000919322503109398328833AC02091A505D8
:103C60003091A605232B41F42091020130910301EC
:103C70003093A6052093A505209100013091010104
:103C80002115310541F42DB73EB740910401509103
:103C90000501241B350BE091A505F091A605E2175F
:103CA000F307A0F42E1B3F0B2817390778F0AC015F
:103CB0004E5F5F4F2417350748F04E0F5F1F50933C
:103CC000A6054093A5058193919302C0E0E0F0E042
:103CD000CF01DF91CF910895CF93DF93009709F43F
:103CE00087C0FC01329713821282C091A705D09140
:103CF000A805209781F420813181280F391F8091F8
:103D0000A5059091A6058217930779F5F093A6056E
:103D1000E093A5056DC0DE0120E030E0AE17BF07DF
:103D200050F412964D915C9113979D0141155105E8
:103D300009F1DA01F3CFB383A28340815181840F6B
:103D4000951F8A179B0771F48D919C911197840F91
:103D5000951F02969183808312968D919C91139763
:103D6000938382832115310529F4F093A805E0930C
:103D7000A7053EC0D9011396FC93EE9312974D917F
:103D80005D91A40FB51FEA17FB0779F4808191813B
:103D9000840F951F0296D90111969C938E93828170
:103DA000938113969C938E931297E0E0F0E08A81C2
:103DB0009B81009719F0FE01EC01F9CFCE0102962C
:103DC00028813981820F931F2091A5053091A60586
:103DD0002817390769F4309729F41092A805109232
:103DE000A70502C013821282D093A605C093A50531
:103DF000DF91CF910895A0E0B0E0E1E0FFE10C9405
:103E00004420EC01CB01209719F40E94D41DB8C0C6
:103E1000FE01E60FF71F9E0122503109E217F3075A
:103E200008F4ACC0D9010D911C9111970617170722
:103E3000B8F00530110508F49FC0A801445051099D
:103E40004617570708F498C002501109061B170BB4
:103E5000019311936D937C93CF010E946C1E8CC0D3
:103E60005B01A01AB10A4E01800E911EA091A70518
:103E7000B091A805612C712C60E070E0109709F4F6
:103E800049C0A815B905C9F5ED90FC9011976701D7
:103E900042E0C40ED11CCA14DB0478F147018A1831
:103EA0009B08640142E0C40ED11C1296BC9012978C
:103EB0001396AC91B5E0CB16D10440F0B282A38347
:103EC00091828082D9018D939C9309C00E5F1F4F10
:103ED0000E0D1F1DF90111830083EB2DFA2F6115C3
:103EE000710531F0DB011396FC93EE93129744C0F9
:103EF000F093A805E093A7053FC06D917C911197C1
:103F00006616770608F43B01BD0112960D90BC9130
:103F1000A02DB4CF6091A5057091A605681579050F
:103F2000E9F468167906D0F440910001509101013E
:103F30004115510541F44DB75EB760910401709190
:103F40000501461B570BE417F507C0F4F093A605CF
:103F5000E093A505F901918380830EC00E94D41DD2
:103F60007C01009759F0A801BE010E940220CE01F9
:103F70000E946C1EC70104C0CE0102C080E090E028
:103F8000CDB7DEB7EEE00C94602081E090E0F894CD
:103F90000C9477201F93FC0199278827BC01E89493
:103FA00011911032E9F3193010F01E30C8F31B32B2
:103FB00051F01D3249F4689406C00E941220610F2E
:103FC000711D811D911D119110531A30B0F33EF4F3
:103FD00090958095709561957F4F8F4F9F4F1F9162
:103FE000089585FD4AC08062911147C081568A516B
:103FF000E0F708959111089581548A5108F4805E84
:10400000855A0895FB01DC0102C001900D924150D8
:104010005040D8F70895FB01DC0101900D9200207B
:10402000E1F70895592F482F372F262F660F771F56
:10403000881F991F660F771F881F991F620F731FB4
:10404000841F951F660F771F881F991F0895F99980
:10405000FECF92BD81BDF89A992780B50895262F8D
:10406000F999FECF1FBA92BD81BD20BD0FB6F8945D
:10407000FA9AF99A0FBE019608959927882708950C
:104080002F923F924F925F926F927F928F929F9268
:10409000AF92BF92CF92DF92EF92FF920F931F9356
:1040A000CF93DF93CDB7DEB7CA1BDB0B0FB6F89407
:1040B000DEBF0FBECDBF09942A88398848885F8447
:1040C0006E847D848C849B84AA84B984C884DF80B8
:1040D000EE80FD800C811B81AA81B981CE0FD11D9C
:1040E0000FB6F894DEBF0FBECDBFED01089515E009
:1040F000CAECD5E004C0FE010E94C11D2296CC3C52
:08410000D107C9F7F894FFCFC5
:104108000000A90580000000000000000000000079
:104118000000000000000000000000000000000097
:10412800000000000000000000000000C0E0F0F8FF
:10413800FCFCFEFFFCE000000000000000000000A6
:104148000000000000000000000000000000000067
:104158000000000000000000000000000000000057
:104168000000000000000000000000F8F8F8F8F86F
:10417800F8F8F8F8F8F8F8F0F0E0E0C080C0FCFFD4
:10418800FFFFFF7F3F7FFFFFFFFFFF0000000000F2
:104198000000000000000000000000000000000017
:1041A8000000000000000000000000000000000007
:1041B80000000000000000000000000000000000F7
:1041C8000F1F3F7FFFFFFFFFFFFFFFFFE7C7C78707
:1041D8008F9F9FFFFFFFC1C0E0FCFFFFFFFFFFFCB9
:1041E800FCFCFCFEFEFEFCFCF8F8F0E0C0C00000A1
:1041F80000000000000000000000000000000000B7
:1042080000000000000000000000000000000000A6
:104218000000000000000080C0E0F1FBFFFFFFFF8E
:10422800FF7F1F0F0F87E7FFFFFF1F1F3FF9F8F8FA
:10423800F8F8F8F8FDFFFFFFFFFFFFFFFFFF7F3FE4
:104248000F0701000000000000000000000000004F
:104258000000000000000000000000000000000056
:10426800000000000000000000F0FEFFFFFFFFFF5D
:10427800FFFFFFFFFFFE7E3F3F0F1FFFFFFFFCF02A
:10428800E0F1FFFFFFFFFFFCF00101010101010167
:104298000100000000000000000000000000000015
:1042A8000000000000000000000000000000000006
:1042B80000000000000000000000000000030303ED
:1042C80003030303030101010100000000000000D3
:1042D800030F1F3F7F7FFFFFFFFF7F7F1F0300004C
:1042E80000000000000000000000000000000000C6
:1042F80000000000000000000000000000000101B4
:10430800000200050028002C01FFFFFEFFFBFFD87C
:10431800FF9CFF40526567756C6174656441697202
:10432800537570706C790020200040526561636895
:10433800656400526567756C6174656400416972F3
:1043480020537570706C790050563A0053563A00F5
:1043580025004D3A0053455400534E4E0043414CFE
:10436800003E3E0053313A0053323A004E6F6E65BC
:10437800004F4B3F00403100000000403200000079
:104388000040350000000040343000000040333069
:104398003000005345545441524745540023436864
:1043A800616E6765207461726765743A00234368BB
:1043B800616E676520746172676574206661696CF7
:1043C80065643A00474554544152474554002343D5
:1043D800757272656E74207461726765743A005301
:1043E80054415254535445500023537461727420FD
:1043F800737465707065720053544F505354455030
:10440800002353746F7020737465707065720000B8
:104418000000004B112E183216080D0E0E250EBF87
:104428000D3B0E700E8E0E000000004B112E18A5CD
:1044380011080D0E0E250EBF0D3B0E700E8E0E00D0
:10444800000000B2162E1834164D163F1690160DA1
:104458000A006E616E00696E66006F7666002E0057
:107800000C94343C0C94513C0C94513C0C94513CE1
:107810000C94513C0C94513C0C94513C0C94513CB4
:107820000C94513C0C94513C0C94513C0C94513CA4
:107830000C94513C0C94513C0C94513C0C94513C94
:107840000C94513C0C94513C0C94513C0C94513C84
:107850000C94513C0C94513C0C94513C0C94513C74
:107860000C94513C0C94513C11241FBECFEFD8E036
:10787000DEBFCDBF11E0A0E0B1E0ECE9FFE702C060
:1078800005900D92A230B107D9F712E0A2E0B1E065
:1078900001C01D92AD30B107E1F70E942D3D0C945F
:1078A000CC3F0C94003C982F959595959595959582
:1078B000905D8F708A307CF0282F295A8091C0000B
:1078C00085FFFCCF9093C6008091C00085FFFCCF60
:1078D0002093C6000895282F205DF0CF982F809127
:1078E000C00085FFFCCF9093C6000895EF92FF92F1
:1078F0000F931F93EE24FF2487018091C00087FD22
:1079000017C00894E11CF11C011D111D81E4E8164B
:1079100082E4F8068FE0080780E0180770F3E09132
:107920000401F091050109958091C00087FFE9CF1E
:107930008091C6001F910F91FF90EF9008950E94D3
:10794000763C982F8091C00085FFFCCF9093C600B5
:1079500091362CF490330CF09053892F089597555D
:10796000892F08951F930E949F3C182F0E949F3CCF
:107970001295107F810F1F9108951F93182F882350
:1079800021F00E94763C1150E1F71F9108951F935A
:10799000182F0E94763C803249F0809103018F5F5E
:1079A000809303018530C1F01F9108958091C0003C
:1079B00085FFFCCF84E18093C6008091C00085FFE5
:1079C000FCCF1093C6008091C00085FFFCCF80E102
:1079D0008093C6001F910895E0910401F091050184
:1079E00009951F9108950E94763C803241F0809164
:1079F00003018F5F80930301853081F008958091AA
:107A0000C00085FFFCCF84E18093C6008091C00058
:107A100085FFFCCF80E18093C6000895E0910401CA
:107A2000F09105010995089540E951E08823A1F0FE
:107A30002D9A28EE33E0FA013197F1F721503040CA
:107A4000D1F72D9828EE33E0FA013197F1F7215064
:107A50003040D1F7815061F708953F924F925F9285
:107A60006F927F928F929F92AF92BF92CF92DF924E
:107A7000EF92FF920F931F93CF93DF93000080E16B
:107A80008093C4001092C50088E18093C10086E015
:107A90008093C2005098589A259A81E00E94143D24
:107AA00024E1F22E9EE1E92E85E9D82E0FE0C02ECA
:107AB00010E1B12EAA24A394B1E49B2EA6E58A2E50
:107AC000F2E57F2EE0E26E2E79E4572E63E5462E36
:107AD00050E5352E0E94763C8033B1F18133B9F107
:107AE000803409F46FC0813409F476C0823409F41B
:107AF00085C0853409F488C0803531F1823521F1A3
:107B0000813511F1853509F485C0863509F48DC0BC
:107B1000843609F496C0843709F403C1853709F423
:107B200072C1863709F466C0809103018F5F80932C
:107B30000301853079F6E0910401F0910501099582
:107B40000E94763C803351F60E94F33CC3CF0E94E2
:107B5000763C803249F78091C00085FFFCCFF092DF
:107B6000C6008091C00085FFFCCF9092C600809136
:107B7000C00085FFFCCF8092C6008091C00085FFC9
:107B8000FCCF7092C6008091C00085FFFCCF609250
:107B9000C6008091C00085FFFCCF5092C600809146
:107BA000C00085FFFCCF4092C6008091C00085FFD9
:107BB000FCCF3092C6008091C00085FFFCCFB09210
:107BC000C60088CF0E94763C863808F4BDCF0E945C
:107BD000763C0E94F33C7ECF0E94763C803809F4CC
:107BE0009CC0813809F40BC1823809F43CC1883942
:107BF00009F48FC080E00E94C73C6CCF84E10E94F2
:107C0000BD3C0E94F33C66CF85E00E94BD3C0E94D3
:107C1000F33C60CF0E94763C809306010E94763C44
:107C2000809307010E94F33C55CF0E94763C80333D
:107C300009F41DC183E00E94BD3C80E00E94C73C66
:107C400049CF0E94763C809309020E94763C809343
:107C5000080280910C028E7F80930C020E94763C79
:107C6000853409F415C18091080290910902892B8D
:107C700089F000E010E00E94763CF801E85FFE4FDA
:107C800080830F5F1F4F80910802909109020817AF
:107C9000190788F30E94763C803209F045CF809125
:107CA0000C0280FF01C16091060170910701660F0F
:107CB000771F7093070160930601A0910802B091AD
:107CC00009021097C9F0E8E0F1E09B01AD014E0F09
:107CD0005F1FF999FECF32BD21BD819180BDFA9A17
:107CE000F99A2F5F3F4FE417F50799F76A0F7B1F4B
:107CF00070930701609306018091C00085FFFCCF5F
:107D0000F092C6008091C00085FFFCCFB092C60003
:107D1000E1CE83E00E94C73CDDCE82E00E94C73CFA
:107D2000D9CE0E94763C809309020E94763C8093D3
:107D300008028091060190910701880F991F909386
:107D40000701809306010E94763C853409F4A6C0A1
:107D500080910C028E7F80930C020E94763C8032D0
:107D600009F0B8CE8091C00085FFFCCFF092C6002C
:107D7000609108027091090261157105B9F140E046
:107D800050E080910C02A82FA170B82FB27011C0E2
:107D9000BB2309F45CC0E0910601F0910701319624
:107DA000F0930701E09306014F5F5F4F46175707B7
:107DB000E8F4AA2369F3F999FECF209106013091E6
:107DC000070132BD21BDF89A90B58091C00085FFB2
:107DD000FCCF9093C6002F5F3F4F30930701209355
:107DE00006014F5F5F4F4617570718F38091C00099
:107DF00085FDE5CE8091C00085FFF8CFE0CE81E023
:107E00000E94C73C67CE0E94763C803209F08CCE3F
:107E10008091C00085FFFCCFF092C6008091C00029
:107E200085FFFCCFE092C6008091C00085FFFCCFAB
:107E3000D092C6008091C00085FFFCCFC092C600E2
:107E40008091C00085FFFCCFB092C60043CEE09188
:107E50000601F091070194918091C00085FFFCCF4D
:107E60009093C6009CCF80E10E94C73C33CE0E9415
:107E7000763C0E94763C182F0E94763C112309F430
:107E800083C0113009F484C08FE00E94C73C22CE29
:107E900080910C02816080930C02E5CE80910C02EF
:107EA000816080930C0259CF809107018823880F4D
:107EB000880B8A2180930B02809106019091070123
:107EC000880F991F90930701809306018091080203
:107ED00080FF09C080910802909109020196909359
:107EE000090280930802F894F999FECF1127E091D6
:107EF0000601F0910701C8E0D1E08091080290915D
:107F00000902103091F40091570001700130D9F34B
:107F100003E000935700E89500915700017001308D
:107F2000D9F301E100935700E89509901990009169
:107F3000570001700130D9F301E000935700E89534
:107F40001395103498F011270091570001700130FB
:107F5000D9F305E000935700E895009157000170B0
:107F60000130D9F301E100935700E895329602976A
:107F700009F0C7CF103011F00296E5CF112480919F
:107F8000C00085FFB9CEBCCE8EE10E94C73CA2CD19
:0C7F900085E90E94C73C9ECDF894FFCF0D
:027F9C00800063
:040000030000780081
:00000001FF