:100000000C9465000C948D000C948D000C948D0064
:100010000C948D000C948D000C948D000C948D002C
:100020000C948D000C948D000C948D000C94BA07E8
:100030000C948D000C948D000C948D000C948D000C
:100040000C94AE090C948D000C94CA0C0C94FC0C0E
:100050000C948D000C948D000C948D000C948D00EC
:100060000C948D000C948D0000000008000201002B
:100070000003040700000000000000000102040863
:100080001020408001020408102001020408102002
:10009000040404040404040402020202020203032E
:1000A00003030303000000002300260029000000D2
:1000B0000000250028002B0000000000240027007D
:1000C0002A00AE0199032C0DB40311241FBECFEFFB
:1000D000D8E0DEBFCDBF13E0A0E0B1E0E2EDFCE28E
:1000E00002C005900D92AE36B107D9F724E0AEE616
:1000F000B3E001C01D92A136B207E1F710E0C8ECF1
:10010000D0E004C02297FE010E94C113C23CD10777
:10011000C9F70E94700D0C945C160C9400000E94AC
:10012000590126E040E051EE60E070E080EC93E0A1
:100130000E94680C6DE071E080EC93E00E94CA0DB3
:1001400080E993E00E94D90681E793E00E94B20122
:1001500080E00E94880180E00E941D0161E271E060
:1001600080EC93E00E94CA0D64EF71E080E090E0C3
:100170000E94270A8CE893E00E94C00368EE73E0B7
:1001800080E090E00E94270A67E371E080EC93E052
:100190000C94CA0D80EC93E00E94850B181619068A
:1001A00054F480EC93E00E949E0BBC0181E793E045
:1001B0000E94D201EFCF809188038823E9F18091DA
:1001C000890390918A038130910551F01CF4892BA9
:1001D00019F1089582309105A1F00397E9F008958F
:1001E00080918B03882341F18CE893E00E94E7041F
:1001F00082E090E090938A038093890310928B03AE
:1002000008958CE893E00E94540683E090E0909378
:100210008A038093890308958CE893E00E94FF038A
:1002200081E090E090938A03809389036EE371E00C
:1002300080EC93E00C94CA0D0895CF93DF93209146
:100240000A0130910B018823B9F02E36310571F582
:10025000CEE6D0E0BE018EE693E00E94490964E15B
:1002600070E080E090E00E94270A2197C534D10514
:1002700089F786E490E016C026343105B9F4C6E467
:10028000D0E0BE018EE693E00E94490964E170E08F
:1002900080E090E00E94270A2196CF36D10589F7A9
:1002A0008EE690E090930B0180930A01DF91CF914D
:1002B000089564E070E08EE693E00E94100980E00B
:1002C0000E941D016EE670E08EE693E00E944909EF
:1002D00061E087E00E94ED0A61E087E00E94260B62
:1002E00062E089E00E94ED0A61E088E00E94ED0A88
:1002F00061E085E00E94ED0A61E082E00E94ED0A83
:1003000060E088E00E94260B60E085E00C94260BFC
:10031000882311F061E001C060E087E00C94260BB7
:10032000FF920F931F93CF93DF93F82E0AE010E014
:10033000C0E0D0E08F2D0E94A70AC80FD91F01503E
:100340001109C1F7CE016AE070E00E944B13CB01A6
:10035000DF91CF911F910F91FF9008958EE693E06A
:100360000C947608CF93DF93EC016EE573E00E9466
:1003700074106EE573E0CE0106960E9474106EE56F
:1003800073E0CE010C960E94741081E08A8B41E0EC
:1003900050E060E070E04B8B5C8B6D8B7E8BDF916F
:1003A000CF910895EF92FF920F931F93CF93DF9316
:1003B00000D000D000D0CDB7DEB78C017B01CB01DF
:1003C000C0970A97D8F4F8018289882329F0C801D8
:1003D00006960E94B81017C0C8010C960E94B8106B
:1003E000F8012389348945895689AAE0B0E00E9442
:1003F000A013638B748B858B968B05C06E32710551
:1004000011F4F801128AC7010E94EE15892B21F020
:100410006E2DC8010E94B810FAE0EF16F10409F041
:100420007BC1F8012289C8010696211104C00E94EF
:100430000411C8010C960E94041165E471E0CE011C
:1004400001960E945E10BE016F5F7F4FC8010E943F
:10045000CB10F82ECE0101960E94F00FFF20A1F0E4
:10046000F801878981110AC08CE893E00E94FF039C
:1004700081E090E0F801918F808F06C06DE471E01B
:1004800080EC93E00E94CA0D69E571E0CE0101960F
:100490000E945E10BE016F5F7F4FC8010E94CB10AB
:1004A000F82ECE0101960E94F00FFF20A1F0F80176
:1004B000878981110AC08CE893E00E94E70482E0FA
:1004C00090E0F801918F808F06C06DE471E080ECC0
:1004D00093E00E94CA0D61E671E0CE0101960E9490
:1004E0005E10BE016F5F7F4FC8010E94CB10F82ED7
:1004F000CE0101960E94F00FFF20A1F0F80187893C
:1005000081110AC08CE893E00E94540683E090E0D9
:10051000F801918F808F06C06DE471E080EC93E06C
:100520000E94CA0D67E671E0CE0101960E945E103E
:10053000BE016F5F7F4FC8010E94CB10F82ECE0125
:1005400001960E94F00FFF2091F0F8018789811138
:1005500008C08CE893E00E94C003F801118E108E51
:1005600006C06DE471E080EC93E00E94CA0D6CE679
:1005700071E0CE0101960E945E10BE016F5F7F4F59
:10058000C8010E94CB10F82ECE0101960E94F00FF8
:10059000FF2069F0F8018789882319F081E0828FB4
:1005A00006C064E771E080EC93E00E94CA0D62E847
:1005B00071E0CE0101960E945E10BE016F5F7F4F19
:1005C000C8010E94CB10F82ECE0101960E94F00FB8
:1005D000FF2079F081E0F801878B67E871E080EC1B
:1005E00093E00E94CA0D62E971E080EC93E00E9402
:1005F000CA0D66E971E0CE0101960E945E10BE014F
:100600006F5F7F4FC8010E94CB10F82ECE0101967C
:100610000E94F00FFF2071F0F801178A6DE971E078
:1006200080EC93E00E94CA0D62E971E080EC93E0F7
:100630000E94CA0D6AEA71E0CE0101960E945E1026
:10064000BE016F5F7F4FC8010E94CB10F82ECE0114
:1006500001960E94F00FFF2049F081E080938E0305
:1006600064EB71E080EC93E00E94CA0D6DEC71E0E8
:10067000CE0101960E945E10BE016F5F7F4FC801E0
:100680000E94CB10F82ECE0101960E94F00FFF20A1
:1006900049F081E080938F0366ED71E080EC93E098
:1006A0000E94CA0D6EEF71E0CE0101960E945E10AD
:1006B000BE016F5F7F4FC8010E94CB10F82ECE01A4
:1006C00001960E94F00FFF2049F081E080938C0397
:1006D0006EEE71E080EC93E00E94CA0D6CEF71E069
:1006E000CE0101960E945E10BE016F5F7F4FC80170
:1006F0000E94CB10F82ECE0101960E94F00FFF2031
:1007000041F010928C0363E072E080EC93E00E9471
:10071000CA0DC8010E94B20126960FB6F894DEBF3A
:100720000FBECDBFDF91CF911F910F91FF90EF9042
:1007300008956EE573E081E793E00E945E106EE538
:1007400073E087E793E00E945E106EE573E08DE74B
:1007500093E00E945E101092880310928A03109218
:10076000890310928B0308958DE793E00E94F00FA8
:1007700087E793E00E94F00F81E793E00C94F00F7D
:10078000FC01108211821282138262E172E080EC1D
:1007900093E00E94CA0D80E00E94880164E670E048
:1007A00080E090E00E94270A80E00E941D0168EE30
:1007B00073E080E090E00E94270A21E040E050E0F2
:1007C00060E470E480E993E00E94530721E040E098
:1007D00050E060EE70E480E993E00E94330764EF3C
:1007E00071E080E090E00E94270A80E993E00E9497
:1007F000AD076FE172E080EC93E00C94CA0DCF93EB
:10080000DF93EC016FE272E080EC93E00E94CA0D8E
:100810006B8170E04AE050E080EC93E00E94750E3E
:100820008A81882341F019821A826FE372E080EC9A
:1008300093E00E94CA0D8B81882349F081E089836F
:100840001B826FE472E080EC93E00E94CA0D898104
:10085000882309F459C081E00E941D0168EE73E00D
:1008600080E090E00E94270A20E040E050E060E055
:100870007FE380E993E00E94530764EF71E080E03A
:1008800090E00E94270A80E00E941D0168EE73E05C
:1008900080E090E00E94270A20E040E050E060E025
:1008A00070E480E993E00E945307C0E0D0E083E168
:1008B0000E949001803B9105DCF020E04DEC5CEC67
:1008C0006CE47DE380E993E00E9453072196CB30EE
:1008D000D10569F70DC020E04DEC5CEC6CE47DE3E4
:1008E00080E993E00E9453072196CF30D10534F47C
:1008F00083E10E9490018F3A91056CF320E040E083
:1009000050E060E87EE357C081E00E941D0168EE80
:1009100073E080E090E00E94270A20E040E050E091
:1009200060E07FE380E993E00E94530764EF71E0A9
:1009300080E090E00E94270A80E00E941D0168EE9E
:1009400073E080E090E00E94270A20E040E050E061
:1009500060E87FE380E993E00E945307C0E0D0E0C5
:1009600081E10E949001833D91056CF020E04DEC07
:100970005CEC6CE47DE380E993E00E9453072196F0
:10098000CB30D10569F781E10E949001823D91054C
:100990006CF420E04DEC5CEC6CE47DE380E993E0EA
:1009A0000E9453072196CF30D1056CF320E04DEC27
:1009B0005CEC6CE47EE380E993E00E9453076EE513
:1009C00072E080EC93E0DF91CF910C94CA0D4F92CE
:1009D0005F926F927F928F929F92AF92BF92CF92CF
:1009E000DF92EF92FF92CF93DF93EC0161E772E029
:1009F00080EC93E00E94CA0D68EE73E080E090E026
:100A00000E94270A81E00E9488018981882309F4D5
:100A10008FC061E872E080EC93E00E94CA0D0E94F2
:100A2000F8096B017C0183E10E949001803B9105F4
:100A300074F00E94F8096C197D098E099F096932CA
:100A40007A498140910578F362E972E0A8C00E947A
:100A5000F8092B013C010E94040A4B015C0182E170
:100A60000E949001843C910574F00E94F809641979
:100A7000750986099709693B78488105910578F3DE
:100A800062EC72E08CC00E94040A6B017C01C81801
:100A9000D908EA08FB0881E4C81682E4D8068FE08A
:100AA000E806F10408F441C081E10E949001833D11
:100AB000910574F00E94F80964197509860997096F
:100AC000613377458540910578F36DEC72E067C03E
:100AD0000E94040A6B017C01C818D908EA08FB08C7
:100AE00068ED72E080EC93E00E94BD0D2AE030E0FA
:100AF000B701A60180EC93E00E949A0E6DE972E0C6
:100B000080EC93E00E94BD0DC701B6010E94121255
:100B100020E034E244E759E40E9479119B01AC01E2
:100B20006DEC7CEC8CE49FE391C06EEE72E06CC0E7
:100B300064E073E080EC93E00E94CA0D0E94F80923
:100B40006B017C0181E10E949001833D910564F07D
:100B50000E94F8096C197D098E099F09613771415E
:100B60008140910578F3B1CF0E94F8096B017C01B7
:100B70000E94040A4B015C0180E10E949001813ACD
:100B80009105C4F10E94F8096C197D098E099F092D
:100B9000693B78488105910578F366E173E080EC64
:100BA00093E00E94CA0D6DE972E080EC93E00E9430
:100BB000BD0D4AE050E060E070E080EC93E00E9400
:100BC000750E64EF71E080E090E00E94270A80E0FB
:100BD0000E94880164EF71E080E090E00E94270AA3
:100BE0006FEA72E080EC93E00E94CA0D60E070E072
:100BF000CB014BC00E94040A6B017C01C818D908C4
:100C0000EA08FB0861E273E080EC93E00E94BD0D0E
:100C10002AE030E0B701A60180EC93E00E949A0E32
:100C20006DE972E080EC93E00E94BD0DC701B60152
:100C30000E94121220E034E244E759E40E94791144
:100C40009B01AC016DEC7CEC8CE49DE30E9479117E
:100C5000AB01BC0123E030E080EC93E00E94970FF1
:100C60006CED75E080E090E00E94270A80E00E9431
:100C7000880164EF71E080E090E00E94270A6FEA4B
:100C800072E080EC93E00E94CA0DDF91CF91FF905B
:100C9000EF90DF90CF90BF90AF909F908F907F901C
:100CA0006F905F904F900895CF93DF93EC0161E3D5
:100CB00073E080EC93E00E94CA0D8981882349F09B
:100CC00021E04AE959E969E97FE380E993E00E947C
:100CD0005307888121E0882309F442C040E050E0B6
:100CE00060E070E480E993E00E94530721E040E077
:100CF00050E060E470E480E993E00E94330764E62A
:100D000070E080E090E00E94270A81E00E941D01CF
:100D100060E971E080E090E00E94270A20E040E076
:100D200050E060E470E480E993E00E94530764EFD0
:100D300071E080E090E00E94270A80E00E941D019F
:100D400064EF71E080E090E00E94270A21E04DEC22
:100D50005CEC6CE470E480E993E00E94530711C0FE
:100D600040E050E060E87FE380E993E00E945307B1
:100D700021E040E050E060E470E480E993E00E940C
:100D8000330764EF71E080E090E00E94270A80E979
:100D900093E00E94AD0764EF71E080E090E00E9474
:100DA000270A6DE373E080EC93E0DF91CF910C9420
:100DB000CA0D60E088E00C94260B61E082E00E949E
:100DC000260B8AEF90E00E94610A60E082E00E94B8
:100DD000260B84EF91E00C94610A61E082E00E94AE
:100DE000260B65E070E080E090E00E94270A60E05A
:100DF00082E00E94260B65E070E080E090E00C94B9
:100E0000270AEF92FF920F931F93CF93DF938C01EA
:100E10007B01C0E0D0E0CE15DF052CF4C8010E94B4
:100E2000DD062196F8CFDF91CF911F910F91FF90B2
:100E3000EF900895EF92FF920F931F93CF93DF935C
:100E40008C017B01C0E0D0E0CE15DF052CF4C80199
:100E50000E94ED062196F8CFDF91CF911F910F915F
:100E6000FF90EF900895CF92DF92EF92FF92CF9391
:100E7000DF93EC016A017B01622F85E00E94260B63
:100E800020E030E04BE853E4C701B6010E94C812ED
:100E90000E94E111CE01DF91CF91FF90EF90DF90A2
:100EA000CF900C940107CF92DF92EF92FF92CF93F5
:100EB000DF93EC016A017B01622F85E00E94260B23
:100EC00020E030E04BE853E4C701B6010E94C812AD
:100ED0000E94E111CE01DF91CF91FF90EF90DF9062
:100EE000CF900C941A07CF93DF93EC0160E085E07C
:100EF0000E94260B89E00E945C0B892B21F4CE0115
:100F00000E94DD06F7CF61E085E00E94260B68ECC9
:100F100070E0CE010E94010760E085E00E94260B90
:100F200089E00E945C0B892B51F4CE010E94DD0602
:100F300063E070E080E090E00E94270AF1CF61E07A
:100F400085E00E94260B21E04AE959E969ED7FE33B
:100F5000CE01DF91CF910C94330780E993E00E949A
:100F6000730721E040E050E060EA70E480E993E03C
:100F70000C9433071F920F920FB60F9211242F93E8
:100F80003F934F935F936F937F938F939F93AF9311
:100F9000BF93EF93FF938091920387FF05C0109258
:100FA0008500109284001AC020919203332727FDF8
:100FB00030958091910390E0281739077CF4809157
:100FC0009203992787FD9095FC01EE0FFF1FE80F14
:100FD000F91FED56FC4F808186FD15C0809192036C
:100FE0008F5F8093920320919203332727FD3095E2
:100FF0008091910390E028173907BCF48091920307
:101000008C305CF112C080919203992787FD9095F6
:10101000FC01EE0FFF1FE80FF91FED56FC4F80811A
:1010200060E08F730E94260BD9CF8091840090914D
:101030008500049680349C4918F480E49CE905C03E
:10104000809184009091850004969093890080930C
:1010500088008FEF8093920338C0209184003091F4
:10106000850080919203992787FD9095FC01EE0FF2
:10107000FF1FE80FF91FED56FC4F81819281820F0F
:10108000931F909389008093880080919203992701
:1010900087FD9095FC01EE0FFF1FE80FF91FED563D
:1010A000FC4F808186FF11C080919203992787FDB4
:1010B0009095FC01EE0FFF1FE80FF91FED56FC4F56
:1010C000808161E08F730E94260BFF91EF91BF91A9
:1010D000AF919F918F917F916F915F914F913F91D0
:1010E0002F910F900FBE0F901F9018952091910394
:1010F0002C30A0F431E0320F30939103FC012083B7
:10110000822F90E0FC01EE0FFF1FE80FF91FED5654
:10111000FC4F88EB9BE09283818308952FEFFC01C5
:1011200020830895DF92EF92FF920F931F93CF9346
:10113000DF93EC01D62E7A01890188818C3008F08A
:1011400066C061E08D2D0E94ED0A8881A82FB0E075
:10115000FD01EE0FFF1FEA0FFB1FED56FC4F2D2D7B
:101160002F739081907C922B908360E272E06E19D5
:101170007F0977FF02C06D5F7F4F75956795759505
:101180006795698340E659E0401B510B57FF02C049
:101190004D5F5F4F55954795559547954A836CE050
:1011A0000E943F139CE0899FB001112420E030E0B1
:1011B000A901460F571FFA01EE0FFF1FE40FF51F9D
:1011C000ED56FC4F908196FD16C02F5F3F4F2C309F
:1011D000310571F781110FC01092800082E0809379
:1011E00081001092850010928400B19A80916F0066
:1011F000826080936F00888190E0FC01EE0FFF1FFA
:10120000E80FF91FED56FC4F808180648083888150
:10121000DF91CF911F910F91FF90EF90DF90089594
:1012200020E639E040E252E00C949208FC01808113
:101230008C3070F5918128E830E0291B310997FD49
:101240003395220F331F220F331F621773077CF071
:10125000928128E532E0291B310997FD3395220F51
:10126000331F220F331F621773070CF49B012250A8
:101270003109220F331F4FB7F89490E0FC01EE0FB5
:10128000FF1FE80FF91FED56FC4F328321834FBF3C
:1012900008954F925F926F927F92AF92BF92CF92DA
:1012A000DF92EF92FF920F931F93CF93DF93EC01A6
:1012B000603282E078070CF040C077FD06C0653BE5
:1012C00071052CF064EB70E002C060E070E0898191
:1012D00028E830E0281B310987FD3395220F331FA2
:1012E000220F331F5901CC24B7FCC094DC2C882773
:1012F00077FD8095982F2A8148E552E0421B5109DD
:1013000027FD5395440F551F440F551F2A0166248E
:1013100057FC6094762C7F926F925F924F9214EB01
:10132000E12EF12C00E010E020E030E0A9010E9465
:10133000A90F0F900F900F900F90CE01DF91CF91DA
:101340001F910F91FF90EF90DF90CF90BF90AF90E3
:101350007F906F905F904F900C9416091F920F92A0
:101360000FB60F9211242F933F938F939F93AF93B8
:10137000BF938091B8039091B903A091BA03B09143
:10138000BB033091B70323E0230F2D3720F40196E0
:10139000A11DB11D05C026E8230F0296A11DB11D98
:1013A0002093B7038093B8039093B903A093BA0333
:1013B000B093BB038091BC039091BD03A091BE0389
:1013C000B091BF030196A11DB11D8093BC03909302
:1013D000BD03A093BE03B093BF03BF91AF919F9194
:1013E0008F913F912F910F900FBE0F901F901895E6
:1013F0002FB7F8946091B8037091B9038091BA0344
:101400009091BB032FBF08953FB7F8948091BC0320
:101410009091BD03A091BE03B091BF0326B5A89BD8
:1014200005C02F3F19F00196A11DB11D3FBF6627D2
:10143000782F892F9A2F620F711D811D911D42E017
:10144000660F771F881F991F4A95D1F708958F92CD
:101450009F92AF92BF92CF92DF92EF92FF926B0179
:101460007C010E94040A4B015C01C114D104E10417
:10147000F104F1F00E940F110E94040A6819790921
:101480008A099B09683E73408105910570F321E04C
:10149000C21AD108E108F10888EE880E83E0981E90
:1014A000A11CB11CC114D104E104F10429F7DDCF62
:1014B000FF90EF90DF90CF90BF90AF909F908F9074
:1014C00008958230910538F0880F991F880F991F71
:1014D00005970197F1F70895789484B5826084BDEB
:1014E00084B5816084BD85B5826085BD85B5816028
:1014F00085BDEEE6F0E0808181608083E1E8F0E088
:101500001082808182608083808181608083E0E8B6
:10151000F0E0808181608083E1EBF0E08081846095
:101520008083E0EBF0E0808181608083EAE7F0E097
:1015300080818460808380818260808380818160FB
:1015400080838081806880831092C10008958E30EE
:1015500008F08E50877020910C0190E4299F900133
:101560001124822B80937C0080917A008064809388
:101570007A0080917A0086FDFCCF809178002091DE
:10158000790090E0922B0895833081F028F4813027
:1015900099F08230A1F008958730A9F08830B9F031
:1015A0008430D1F4809180008F7D03C080918000D1
:1015B0008F7780938000089584B58F7702C084B5BB
:1015C0008F7D84BD08958091B0008F7703C0809196
:1015D000B0008F7D8093B0000895CF93DF9390E0AB
:1015E000FC01E458FF4F2491FC01E057FF4F849128
:1015F000882349F190E0880F991FFC01E854FF4FC0
:10160000A591B49182559F4FFC01C591D4919FB78C
:10161000611108C0F8948C91209582238C93888165
:1016200082230AC0623051F4F8948C91322F3095A5
:1016300083238C938881822B888304C0F8948C91B7
:10164000822B8C939FBFDF91CF9108950F931F93AF
:10165000CF93DF931F92CDB7DEB7282F30E0F9018B
:10166000E859FF4F8491F901E458FF4F1491F901B3
:10167000E057FF4F04910023C9F0882321F06983CC
:101680000E94C40A6981E02FF0E0EE0FFF1FE255CF
:10169000FF4FA591B4919FB7F8948C91611103C04D
:1016A0001095812301C0812B8C939FBF0F90DF91F8
:1016B000CF911F910F910895CF93DF93282F30E0A2
:1016C000F901E859FF4F8491F901E458FF4FD49193
:1016D000F901E057FF4FC491CC2391F081110E9492
:1016E000C40AEC2FF0E0EE0FFF1FEC55FF4FA59161
:1016F000B4912C912D2381E090E021F480E002C090
:1017000080E090E0DF91CF910895FC01818D228DE2
:1017100090E0805C9F4F821B91098F7399270895F9
:10172000FC01918D828D981731F0828DE80FF11DAB
:10173000858D90E008958FEF9FEF0895FC01918DC6
:10174000828D981761F0828DDF01A80FB11D5D9623
:101750008C91928D9F5F9F73928F90E008958FEF91
:101760009FEF089582E29DE0892B49F080E090E0B0
:10177000892B29F00E94220D81110C9400000895FC
:10178000FC01848DDF01A80FB11DA35ABF4F2C911E
:10179000848D90E001968F739927848FA689B789ED
:1017A0002C93A089B1898C9180648C93938D848DC6
:1017B000981306C00288F389E02D80818F7D808395
:1017C0000895CF93DF93EC01888D8823C9F0EA89CF
:1017D000FB89808185FD05C0A889B9898C9186FD2A
:1017E0000FC00FB607FCF5CF808185FFF2CFA88927
:1017F000B9898C9185FFEDCFCE010E94C00BE7CF58
:10180000DF91CF910895CF92DF92FF920F931F93B4
:10181000CF93DF931F92CDB7DEB76C0181E0D60185
:1018200058968C9358975B969C915B975C968C919D
:101830005C97981307C05096ED91FC915197808169
:1018400085FD2EC0F601038D10E00F5F1F4F0F7353
:101850001127F02EF601848DF81211C00FB607FC87
:10186000F9CFD6015096ED91FC915197808185FF7B
:10187000F1CFC60169830E94C00B6981EBCF838DD4
:10188000E80FF11DE35AFF4F6083D6015B960C937E
:101890005B975296ED91FC915397808180620CC0CA
:1018A000D6015696ED91FC91579760835096ED9135
:1018B000FC91519780818064808381E090E00F905B
:1018C000DF91CF911F910F91FF90DF90CF900895FE
:1018D000BF92CF92DF92EF92FF92CF93DF93EC0112
:1018E0006A017B01B22EE889F98982E08083411583
:1018F00081EE580761057105A1F060E079E08DE3A4
:1019000090E0A70196010E945F132150310941091F
:1019100051095695479537952795211580E1380748
:1019200098F0E889F989108260E874E88EE190E027
:10193000A70196010E945F13215031094109510905
:101940005695479537952795EC85FD853083EE852F
:10195000FF852083188EEC89FD89B082EA89FB8996
:10196000808180618083EA89FB89808188608083AF
:10197000EA89FB89808180688083EA89FB8980818C
:101980008F7D8083DF91CF91FF90EF90DF90CF909C
:10199000BF9008951F920F920FB60F9211242F93AC
:1019A0008F939F93EF93FF93E091D003F091D10336
:1019B0008081E091D603F091D70382FD12C090811F
:1019C0008091D9038F5F8F732091DA03821751F0D2
:1019D000E091D903F0E0E054FC4F958F8093D90358
:1019E00001C08081FF91EF919F918F912F910F9076
:1019F0000FBE0F901F9018951F920F920FB60F9267
:101A000011242F933F934F935F936F937F938F9303
:101A10009F93AF93BF93EF93FF9380EC93E00E946B
:101A2000C00BFF91EF91BF91AF919F918F917F91EB
:101A30006F915F914F913F912F910F900FBE0F903B
:101A40001F90189580EC93E00E94850B21E0892B74
:101A500009F420E0822F08951092C3031092C2036C
:101A600088EE93E0A0E0B0E08093C4039093C503B8
:101A7000A093C603B093C70380E593E09093C1039E
:101A80008093C00385EC90E09093CD038093CC03CA
:101A900084EC90E09093CF038093CE0380EC90E0B1
:101AA0009093D1038093D00381EC90E09093D30383
:101AB0008093D20382EC90E09093D5038093D4037B
:101AC00086EC90E09093D7038093D6031092D903CD
:101AD0001092DA031092DB031092DC03089508954C
:101AE0000E946C0A0E946F0D0E948F00C2EBDBE027
:101AF0000E94CA002097E1F30E94B20BF9CFCF9267
:101B0000DF92EF92FF920F931F93CF93DF937C01AD
:101B10006A01EB0100E010E00C151D0571F0699100
:101B2000D701ED91FC910190F081E02DC70109955D
:101B3000892B19F00F5F1F4FEFCFC801DF91CF91B5
:101B40001F910F91FF90EF90DF90CF900895611556
:101B5000710581F0DB010D900020E9F7AD014150E6
:101B60005109461B570BDC01ED91FC910280F3817A
:101B7000E02D099480E090E008950C94A70DDC011D
:101B8000ED91FC910190F081E02D09946CE573E0FA
:101B90000C94A70D0F931F93CF93DF93EC010E943A
:101BA000A70D8C01CE010E94C60D800F911FDF9101
:101BB000CF911F910F9108958F929F92AF92BF92F4
:101BC000DF92EF92FF920F931F93CF93DF93CDB7E6
:101BD000DEB7A1970FB6F894DEBF0FBECDBF7C0174
:101BE000F42FD52ECB0119A2223008F42AE08E0161
:101BF0000F5D1F4F822E912CA12CB12C6F2F7D2DAC
:101C0000A50194010E945F13F22FD32ECA01015047
:101C100011096A3014F4E0E301C0E7E3E60FD801EC
:101C2000EC93232B242B252B49F7B801C7010E94E5
:101C3000A70DA1960FB6F894DEBF0FBECDBFDF9102
:101C4000CF911F910F91FF90EF90DF90BF90AF90D9
:101C50009F908F900895CF92DF92EF92FF920F9313
:101C60001F93CF93DF93EC016A017B0121153105AE
:101C700079F4E881F9810190F081E02D642FDF9102
:101C8000CF911F910F91FF90EF90DF90CF9009942B
:101C90002A303105E9F477FF1AC06DE20E94BF0DCA
:101CA0008C0144275527BA014C195D096E097F093B
:101CB0002AE0CE010E94DC0D800F911FDF91CF91B1
:101CC0001F910F91FF90EF90DF90CF9008952AE041
:101CD000B701A601CE01DF91CF911F910F91FF9027
:101CE000EF90DF90CF900C94DC0D0F931F93CF9368
:101CF000DF93EC019A01AB01662757FD6095762FC3
:101D00000E942B0E8C01CE010E94C60D800F911FE8
:101D1000DF91CF911F910F9108952115310541F465
:101D2000DC01ED91FC910190F081E02D642F09948C
:101D30000C94DC0D0F931F93CF93DF93EC010E9463
:101D40008D0E8C01CE010E94C60D800F911FDF9178
:101D5000CF911F910F9108954F925F926F927F9252
:101D60008F929F92AF92BF92CF92DF92EF92FF92AB
:101D70000F931F93CF93DF93EC016A017B01B22E87
:101D80009A01AB01C701B6010E942B13882319F0F9
:101D90006FE573E027C026013701E89477F82FEF4D
:101DA0003FEF4FE75FE7C301B2010E942B138111A0
:101DB0000DC02FEF3FEF4FE75FE7C301B2010E9475
:101DC000751118161CF463E673E00CC02FEF3FEF9B
:101DD0004FE75FE4C701B6010E94C4121816ACF4C5
:101DE00067E673E0CE01DF91CF911F910F91FF90D5
:101DF000EF90DF90CF90BF90AF909F908F907F90AB
:101E00006F905F904F900C94A70D2FEF3FEF4FE72F
:101E10005FECC701B6010E94751187FDE1CF20E09C
:101E200030E0A901C701B6010E94751187FF0AC001
:101E30006DE2CE010E94BF0D8C01F7FAF094F7F825
:101E4000F09402C000E010E0A12C60E070E080E0BF
:101E50009FE3AB1441F020E030E040E251E40E9407
:101E60007911A394F6CF9B01AC01C701B6010E9482
:101E700011116B017C010E94E6112B013C010E94B3
:101E800012129B01AC01C701B6010E9410116B0137
:101E90007C012AE0B301A201CE010E94DC0D080FF3
:101EA000191FBB2039F06BE673E0CE010E94A70D2D
:101EB000080F191F7B2C772041F120E030E040E231
:101EC00051E4C701B6010E94C8126B017C010E9457
:101ED000E1114B01AA2497FCA094BA2C2AE030E02F
:101EE000B501A401CE010E942B0E080F191FC501D8
:101EF000B4010E9414129B01AC01C701B6010E94FB
:101F000010116B017C017A94D6CFC801DF91CF917B
:101F10001F910F91FF90EF90DF90CF90BF90AF9007
:101F20009F908F907F906F905F904F9008950F9348
:101F30001F93CF93DF93EC010E94AC0E8C01CE0176
:101F40000E94C60D800F911FDF91CF911F910F91BD
:101F500008954F925F926F927F92AF92BF92CF920D
:101F6000DF92EF92FF920F931F93CF93DF93CDB742
:101F7000DEB729013A01621B730B840B950B29898B
:101F80003A894B895C892A193B094C095D09298BDF
:101F90003A8B4B8B5C8B9B01AC0169897A898B896D
:101FA0009C890E942F13E418F50806091709A80157
:101FB00097010E9481132A0D3B1D4C1D5D1DCA0116
:101FC000B901DF91CF911F910F91FF90EF90DF90BA
:101FD000CF90BF90AF907F906F905F904F9008959B
:101FE000FC01808191810C946C14CF93DF93EC0100
:101FF00088819981009711F00E946C1419821882CF
:102000001D821C821B821A82DF91CF9108950F934B
:102010001F93CF93DF93EC018B016F5F7F4F88811C
:1020200099810E94FB14009731F0998388831B8368
:102030000A8381E001C080E0DF91CF911F910F9171
:102040000895CF93DF93EC0188819981892B29F042
:102050008A819B818617970760F4CE010E94071042
:10206000882341F08C819D81892B19F4E881F981C5
:10207000108281E0DF91CF910895EF92FF920F934C
:102080001F93CF93DF93EC017B018A01BA010E9479
:102090002110811104C0CE010E94F50F07C01D83DD
:1020A0000C83B701888199810E940616CE01DF91C9
:1020B000CF911F910F91FF90EF900895FC01118235
:1020C000108213821282158214826115710559F0F3
:1020D000FB0101900020E9F7AF0141505109461B77
:1020E000570B0C943D100895CF93DF93EC016115CD
:1020F000710561F0FB0101900020E9F7AF0141504B
:102100005109461B570B0E943D1002C00E94F50F5B
:10211000CE01DF91CF910895EF92FF920F931F931D
:10212000CF93DF93EC017B010C811D81611571055B
:1021300011F480E016C04115510591F0040F151FF0
:10214000B8010E9421108823A1F3288139818C8154
:102150009D81B701820F931F0E9406161D830C8379
:1021600081E0DF91CF911F910F91FF90EF90089543
:10217000CF93DF9300D0CDB7DEB769831A8241E0F9
:1021800050E0BE016F5F7F4F0E948C100F900F9048
:10219000DF91CF910895EF92FF920F931F93CF930A
:1021A000DF938617970731F1FC0124813581FB010C
:1021B0004481558124173507F9F4232BD9F0FC010C
:1021C00000811181FB01C081D181F80181918F01D2
:1021D000882381F0992787FD90950E94F5157C0151
:1021E0008991992787FD90950E94F515E816F906C3
:1021F00061F302C081E001C080E0DF91CF911F91C7
:102200000F91FF90EF900895FC01808191810097DC
:1022100011F00C94C51560E070E0CB0108950895AD
:102220005058BB27AA270ED075C166D130F06BD1AC
:1022300020F031F49F3F11F41EF45BC10EF4E095E1
:10224000E7FB51C1E92F77D180F3BA176207730713
:102250008407950718F071F49EF58FC10EF4E09590
:102260000B2EBA2FA02D0B01B90190010C01CA0150
:10227000A0011124FF27591B99F0593F50F4503EFB
:1022800068F11A16F040A22F232F342F4427585FED
:10229000F3CF469537952795A795F0405395C9F705
:1022A0007EF41F16BA0B620B730B840BBAF09150BD
:1022B000A1F0FF0FBB1F661F771F881FC2F70EC05C
:1022C000BA0F621F731F841F48F48795779567952F
:1022D000B795F7959E3F08F0B3CF9395880F08F018
:1022E0009927EE0F979587950895D9D008F481E046
:1022F00008950CD00FC107D140F0FED030F021F48A
:102300005F3F19F0F0C0511139C1F3C014D198F3F7
:102310009923C9F35523B1F3951B550BBB27AA2766
:1023200062177307840738F09F5F5F4F220F331FD8
:10233000441FAA1FA9F333D00E2E3AF0E0E830D0A4
:1023400091505040E695001CCAF729D0FE2F27D0A7
:10235000660F771F881FBB1F261737074807AB0775
:10236000B0E809F0BB0B802DBF01FF2793585F4FEA
:102370002AF09E3F510568F0B6C000C15F3FECF304
:10238000983EDCF3869577956795B795F7959F5FAF
:10239000C9F7880F911D9695879597F90895E1E003
:1023A000660F771F881FBB1F621773078407BA0762
:1023B00020F0621B730B840BBA0BEE1F88F7E095BD
:1023C000089504D06894B111D9C00895BCD088F0A4
:1023D0009F5790F0B92F9927B751A0F0D1F0660F11
:1023E000771F881F991F1AF0BA95C9F712C0B1302C
:1023F00081F0C3D0B1E00895C0C0672F782F88273F
:10240000B85F39F0B93FCCF3869577956795B3956A
:10241000D9F73EF490958095709561957F4F8F4FD9
:102420009F4F0895E89409C097FB3EF490958095DE
:10243000709561957F4F8F4F9F4F9923A9F0F92F8A
:1024400096E9BB279395F695879577956795B79508
:10245000F111F8CFFAF4BB0F11F460FF1BC06F5FEE
:102460007F4F8F4F9F4F16C0882311F096E911C000
:10247000772321F09EE8872F762F05C0662371F021
:1024800096E8862F70E060E02AF09A95660F771F35
:10249000881FDAF7880F9695879597F90895990F11
:1024A0000008550FAA0BE0E8FEEF16161706E8071E
:1024B000F907C0F012161306E407F50798F0621B3F
:1024C000730B840B950B39F40A2661F0232B242B14
:1024D000252B21F408950A2609F4A140A6958FEF33
:1024E000811D811D089597F99F6780E870E060E085
:1024F00008959FEF80EC089500240A94161617069D
:1025000018060906089500240A94121613061406E4
:1025100005060895092E0394000C11F4882352F047
:10252000BB0F40F4BF2B11F460FF04C06F5F7F4FFF
:102530008F4F9F4F089557FD9058440F551F59F0E6
:102540005F3F71F04795880F97FB991F61F09F3FA0
:1025500079F087950895121613061406551FF2CFC9
:102560004695F1DF08C0161617061806991FF1CF19
:1025700086957105610508940895E894BB27662740
:102580007727CB0197F908958ADF08F48FEF089534
:102590000BD0C0CFB1DF28F0B6DF18F0952309F0DB
:1025A000A2CFA7CF1124EACFC6DFA0F3959FD1F326
:1025B000950F50E0551F629FF001729FBB27F00DF1
:1025C000B11D639FAA27F00DB11DAA1F649F662746
:1025D000B00DA11D661F829F2227B00DA11D621F95
:1025E000739FB00DA11D621F839FA00D611D221F4F
:1025F000749F3327A00D611D231F849F600D211D33
:10260000822F762F6A2F11249F5750408AF0E1F0D5
:1026100088234AF0EE0FFF1FBB1F661F771F881F1E
:1026200091505040A9F79E3F510570F05CCFA6CF66
:102630005F3FECF3983EDCF3869577956795B79509
:10264000F795E7959F5FC1F7FE2B880F911D969533
:10265000879597F9089523DF880B990B0895DB017F
:102660008F939F930E94A013BF91AF91A29F800D63
:10267000911DA39F900DB29F900D11240895991B59
:1026800079E004C0991F961708F0961B881F7A9569
:10269000C9F78095089597FB072E16F4009407D08C
:1026A00077FD09D00E94AB1307FC05D03EF490954E
:1026B00081959F4F0895709561957F4F0895A1E290
:1026C0001A2EAA1BBB1BFD010DC0AA1FBB1FEE1FAC
:1026D000FF1FA217B307E407F50720F0A21BB30BF7
:1026E000E40BF50B661F771F881F991F1A9469F773
:1026F00060957095809590959B01AC01BD01CF01CF
:102700000895052E97FB1EF400940E94981357FD20
:1027100007D00E945F1307FC03D04EF40C9498136B
:1027200050954095309521953F4F4F4F5F4F0895FD
:1027300090958095709561957F4F8F4F9F4F08952D
:102740000E94C513A59F900DB49F900DA49F800D6E
:10275000911D11240895AA1BBB1B51E107C0AA1F9C
:10276000BB1FA617B70710F0A61BB70B881F991F32
:102770005A95A9F780959095BC01CD010895EE0F6B
:10278000FF1F0590F491E02D0994A29FB001B39F23
:10279000C001A39F700D811D1124911DB29F700D6A
:1027A000811D1124911D0895CF93DF9382309105EF
:1027B00010F482E090E0E0915F04F091600420E08A
:1027C00030E0A0E0B0E0309739F140815181481706
:1027D0005907B8F04817590771F48281938110970F
:1027E00029F013969C938E9312972CC090936004BB
:1027F00080935F0427C02115310531F0421753073C
:1028000018F0A901DB0101C0EF019A01BD01DF0150
:102810000280F381E02DD7CF21153105F9F0281B77
:10282000390B2430310580F48A819B816115710553
:1028300021F0FB019383828304C090936004809312
:102840005F04FE01329644C0FE01E20FF31F819344
:10285000919322503109398328833AC020915D0435
:1028600030915E04232B41F4209102013091030149
:1028700030935E0420935D042091000130910101AA
:102880002115310541F42DB73EB740910401509117
:102890000501241B350BE0915D04F0915E04E21705
:1028A000F307A0F42E1B3F0B2817390778F0AC0173
:1028B0004E5F5F4F2417350748F04E0F5F1F509350
:1028C0005E0440935D048193919302C0E0E0F0E0E8
:1028D000CF01DF91CF910895CF93DF93009709F453
:1028E00087C0FC01329713821282C0915F04D0919D
:1028F0006004209781F420813181280F391F809155
:102900005D0490915E048217930779F5F0935E045D
:10291000E0935D046DC0DE0120E030E0AE17BF073C
:1029200050F412964D915C9113979D0141155105FC
:1029300009F1DA01F3CFB383A28340815181840F7F
:10294000951F8A179B0771F48D919C911197840FA5
:10295000951F02969183808312968D919C91139777
:10296000938382832115310529F4F0936004E09369
:102970005F043EC0D9011396FC93EE9312974D91DC
:102980005D91A40FB51FEA17FB0779F4808191814F
:10299000840F951F0296D90111969C938E93828184
:1029A000938113969C938E931297E0E0F0E08A81D6
:1029B0009B81009719F0FE01EC01F9CFCE01029640
:1029C00028813981820F931F20915D0430915E042C
:1029D0002817390769F4309729F41092600410928F
:1029E0005F0402C013821282D0935E04C0935D0420
:1029F000DF91CF910895A0E0B0E0E1E0F5E10C9423
:102A00002916EC01CB01209719F40E94D413B8C009
:102A1000FE01E60FF71F9E0122503109E217F3076E
:102A200008F4ACC0D9010D911C9111970617170736
:102A3000B8F00530110508F49FC0A80144505109B1
:102A40004617570708F498C002501109061B170BC8
:102A5000019311936D937C93CF010E946C148CC0F1
:102A60005B01A01AB10A4E01800E911EA0915F0475
:102A7000B0916004612C712C60E070E0109709F453
:102A800049C0A815B905C9F5ED90FC9011976701EB
:102A900042E0C40ED11CCA14DB0478F147018A1845
:102AA0009B08640142E0C40ED11C1296BC901297A0
:102AB0001396AC91B5E0CB16D10440F0B282A3835B
:102AC00091828082D9018D939C9309C00E5F1F4F24
:102AD0000E0D1F1DF90111830083EB2DFA2F6115D7
:102AE000710531F0DB011396FC93EE93129744C00D
:102AF000F0936004E0935F043FC06D917C91119767
:102B00006616770608F43B01BD0112960D90BC9144
:102B1000A02DB4CF60915D0470915E0468157905B5
:102B2000E9F468167906D0F4409100015091010152
:102B30004115510541F44DB75EB7609104017091A4
:102B40000501461B570BE417F507C0F4F0935E042C
:102B5000E0935D04F901918380830EC00E94D41339
:102B60007C01009759F0A801BE010E94FD15CE011D
:102B70000E946C14C70104C0CE0102C080E090E046
:102B8000CDB7DEB7EEE00C9445161F93FC019927F4
:102B90008827BC01E89411911032E9F3193010F044
:102BA0001E30C8F31B3251F01D3249F4689406C040
:102BB0000E940D16610F711D811D911D1191105301
:102BC0001A30B0F33EF490958095709561957F4FE3
:102BD0008F4F9F4F1F91089585FD34C080629111E2
:102BE00031C081568A51E0F70895911108958154BA
:102BF0008A5108F4805E855A0895FB01DC0102C009
:102C000001900D9241505040D8F70895FB01DC012E
:102C100001900D920020E1F70895592F482F372F8A
:102C2000262F660F771F881F991F660F771F881F33
:102C3000991F620F731F841F951F660F771F881FD0
:102C4000991F08959927882708952F923F924F92B0
:102C50005F926F927F928F929F92AF92BF92CF922C
:102C6000DF92EF92FF920F931F93CF93DF93CDB735
:102C7000DEB7CA1BDB0B0FB6F894DEBF0FBECDBFAD
:102C800009942A88398848885F846E847D848C847E
:102C90009B84AA84B984C884DF80EE80FD800C8187
:102CA0001B81AA81B981CE0FD11D0FB6F894DEBF6A
:102CB0000FBECDBFED01089510E0C8ECD0E004C018
:102CC000FE010E94C1132296CA3CD107C9F7F894AD
:022CD000FFCF34
:102CD200000061048000010000006E0001405363A7
:102CE200616C6554756265466C6F776D657465726B
:102CF2000023506C65617365204F70656E204578C6
:102D020074506F7765720040537461727400405260
:102D12006561647900505245504152450023417526
:102D2200746F204D6F646521004D454153555245E6
:102D320000454E444F5000494E49540047455444C3
:102D420041544100234D616E75616C204D6F646585
:102D520021004155544F00234175746F204D6F641B
:102D62006500404F4B004D414E55414C00234D6193
:102D72006E75616C204D6F64650048494748535039
:102D8200454544002353657474696E67204869673A
:102D920068205370656564204D6F6465004C4F5721
:102DA2005350454544002353657474696E67204C43
:102DB2006F77205370656564204D6F6465002357FB
:102DC200617368204D6F6465204F6E004E4F57410E
:102DD2005348002357617368204D6F6465204F6626
:102DE20066002350726F63657373496E69740023C2
:102DF20050726F63657373496E6974204F4B002381
:102E020050726F63657373507265706172650023EF
:102E120048696768205370656564205365740023B0
:102E22004C6F77205370656564205365740023509E
:102E3200726F6365737350726570617265204F4B78
:102E4200002350726F636573734D656173757265AC
:102E520000234C6F77205370656564205374617250
:102E620074002354696D65206F7574310040466C9F
:102E72006F777261746520286D4C2F73293A002395
:102E820050726F636573734D656173757265204F20
:102E92004B002354696D65206F75743200235469A9
:102EA2006D65206F75743300234761702054696D1E
:102EB200652053312D533320287573293A00234757
:102EC20061702054696D652053312D53322028756D
:102ED20073293A0023486967682053706565642046
:102EE2005374617274002354696D65206F75743474
:102EF20000234761702054696D6520287573293A53
:102F0200002350726F63657373456E6400235072C1
:102F12006F63657373456E64204F4B0000000000C1
:102F2200030C7F0D850B9E0B900BE10B0D0A006EBF
:0E2F3200616E00696E66006F7666002E00000C
:00000001FF
